{
  "address": "0x4DD457452c950FAfdfd4165fE0862584c7d67012",
  "abi": [
    {
      "inputs": [
        {
          "internalType": "address",
          "name": "_feeToSetter",
          "type": "address"
        }
      ],
      "stateMutability": "nonpayable",
      "type": "constructor"
    },
    {
      "anonymous": false,
      "inputs": [
        {
          "indexed": true,
          "internalType": "address",
          "name": "token0",
          "type": "address"
        },
        {
          "indexed": true,
          "internalType": "address",
          "name": "token1",
          "type": "address"
        },
        {
          "indexed": false,
          "internalType": "address",
          "name": "pair",
          "type": "address"
        },
        {
          "indexed": false,
          "internalType": "uint256",
          "name": "",
          "type": "uint256"
        }
      ],
      "name": "PairCreated",
      "type": "event"
    },
    {
      "inputs": [
        {
          "internalType": "uint256",
          "name": "",
          "type": "uint256"
        }
      ],
      "name": "allPairs",
      "outputs": [
        {
          "internalType": "address",
          "name": "",
          "type": "address"
        }
      ],
      "stateMutability": "view",
      "type": "function"
    },
    {
      "inputs": [],
      "name": "allPairsLength",
      "outputs": [
        {
          "internalType": "uint256",
          "name": "",
          "type": "uint256"
        }
      ],
      "stateMutability": "view",
      "type": "function"
    },
    {
      "inputs": [
        {
          "internalType": "address",
          "name": "tokenA",
          "type": "address"
        },
        {
          "internalType": "address",
          "name": "tokenB",
          "type": "address"
        }
      ],
      "name": "createPair",
      "outputs": [
        {
          "internalType": "address",
          "name": "pair",
          "type": "address"
        }
      ],
      "stateMutability": "nonpayable",
      "type": "function"
    },
    {
      "inputs": [],
      "name": "feeTo",
      "outputs": [
        {
          "internalType": "address",
          "name": "",
          "type": "address"
        }
      ],
      "stateMutability": "view",
      "type": "function"
    },
    {
      "inputs": [],
      "name": "feeToSetter",
      "outputs": [
        {
          "internalType": "address",
          "name": "",
          "type": "address"
        }
      ],
      "stateMutability": "view",
      "type": "function"
    },
    {
      "inputs": [
        {
          "internalType": "address",
          "name": "",
          "type": "address"
        },
        {
          "internalType": "address",
          "name": "",
          "type": "address"
        }
      ],
      "name": "getPair",
      "outputs": [
        {
          "internalType": "address",
          "name": "",
          "type": "address"
        }
      ],
      "stateMutability": "view",
      "type": "function"
    },
    {
      "inputs": [],
      "name": "migrator",
      "outputs": [
        {
          "internalType": "address",
          "name": "",
          "type": "address"
        }
      ],
      "stateMutability": "view",
      "type": "function"
    },
    {
      "inputs": [],
      "name": "pairCodeHash",
      "outputs": [
        {
          "internalType": "bytes32",
          "name": "",
          "type": "bytes32"
        }
      ],
      "stateMutability": "pure",
      "type": "function"
    },
    {
      "inputs": [
        {
          "internalType": "address",
          "name": "_feeTo",
          "type": "address"
        }
      ],
      "name": "setFeeTo",
      "outputs": [],
      "stateMutability": "nonpayable",
      "type": "function"
    },
    {
      "inputs": [
        {
          "internalType": "address",
          "name": "_feeToSetter",
          "type": "address"
        }
      ],
      "name": "setFeeToSetter",
      "outputs": [],
      "stateMutability": "nonpayable",
      "type": "function"
    },
    {
      "inputs": [
        {
          "internalType": "address",
          "name": "_migrator",
          "type": "address"
        }
      ],
      "name": "setMigrator",
      "outputs": [],
      "stateMutability": "nonpayable",
      "type": "function"
    }
  ],
  "transactionHash": "0xb248feaee15dbcb23b529f60a379473a4c535ce935a3646b8f090b60634af5dc",
  "args": [
    "0x1fF33b086994311E0eA497D4C69eE34F486729b9"
  ],
  "solcInputHash": "892a2726a32c789d2cae6756b49c1713",
  "bytecode": "0x608060405234801561001057600080fd5b50604051612cf5380380612cf58339818101604052602081101561003357600080fd5b5051600180546001600160a01b0319166001600160a01b03909216919091179055612c92806100636000396000f3fe608060405234801561001057600080fd5b50600436106100a95760003560e01c80637cd07e47116100715780637cd07e47146101395780639aab924814610141578063a2e74af614610149578063c9c653961461016f578063e6a439051461019d578063f46901ed146101cb576100a9565b8063017e7e58146100ae578063094b7415146100d25780631e3dd18b146100da57806323cf3118146100f7578063574f2ba31461011f575b600080fd5b6100b66101f1565b604080516001600160a01b039092168252519081900360200190f35b6100b6610200565b6100b6600480360360208110156100f057600080fd5b503561020f565b61011d6004803603602081101561010d57600080fd5b50356001600160a01b0316610236565b005b6101276102b7565b60408051918252519081900360200190f35b6100b66102bd565b6101276102cc565b61011d6004803603602081101561015f57600080fd5b50356001600160a01b03166102fe565b6100b66004803603604081101561018557600080fd5b506001600160a01b038135811691602001351661037f565b6100b6600480360360408110156101b357600080fd5b506001600160a01b038135811691602001351661069b565b61011d600480360360208110156101e157600080fd5b50356001600160a01b03166106c1565b6000546001600160a01b031681565b6001546001600160a01b031681565b6004818154811061021c57fe5b6000918252602090912001546001600160a01b0316905081565b6001546001600160a01b03163314610295576040805162461bcd60e51b815260206004820152601b60248201527f416c6c696761746f72466163746f72793a20464f5242494444454e0000000000604482015290519081900360640190fd5b600280546001600160a01b0319166001600160a01b0392909216919091179055565b60045490565b6002546001600160a01b031681565b6000604051806020016102de90610742565b6020820181038252601f19601f8201166040525080519060200120905090565b6001546001600160a01b0316331461035d576040805162461bcd60e51b815260206004820152601b60248201527f416c6c696761746f72466163746f72793a20464f5242494444454e0000000000604482015290519081900360640190fd5b600180546001600160a01b0319166001600160a01b0392909216919091179055565b6000816001600160a01b0316836001600160a01b031614156103d25760405162461bcd60e51b8152600401808060200182810382526025815260200180612c386025913960400191505060405180910390fd5b600080836001600160a01b0316856001600160a01b0316106103f55783856103f8565b84845b90925090506001600160a01b038216610458576040805162461bcd60e51b815260206004820152601e60248201527f416c6c696761746f72466163746f72793a205a45524f5f414444524553530000604482015290519081900360640190fd5b6001600160a01b038281166000908152600360209081526040808320858516845290915290205416156104d2576040805162461bcd60e51b815260206004820152601d60248201527f416c6c696761746f72466163746f72793a20504149525f455849535453000000604482015290519081900360640190fd5b6060604051806020016104e490610742565b6020820181038252601f19601f8201166040525090506000838360405160200180836001600160a01b031660601b8152601401826001600160a01b031660601b815260140192505050604051602081830303815290604052805190602001209050808251602084016000f59450846001600160a01b031663485cc95585856040518363ffffffff1660e01b815260040180836001600160a01b03168152602001826001600160a01b0316815260200192505050600060405180830381600087803b1580156105b157600080fd5b505af11580156105c5573d6000803e3d6000fd5b505050506001600160a01b0384811660008181526003602081815260408084208987168086529083528185208054978d166001600160a01b031998891681179091559383528185208686528352818520805488168517905560048054600181018255958190527f8a35acfbc15ff81a39ae7d344fd709f28e8600b4aa8c65c6b64bfe7fe36bd19b90950180549097168417909655925483519283529082015281517f0d3648bd0f6ba80134a33ba9275ac585d9d315f0ad8355cddefde31afa28d0e9929181900390910190a35050505092915050565b60036020908152600092835260408084209091529082529020546001600160a01b031681565b6001546001600160a01b03163314610720576040805162461bcd60e51b815260206004820152601b60248201527f416c6c696761746f72466163746f72793a20464f5242494444454e0000000000604482015290519081900360640190fd5b600080546001600160a01b0319166001600160a01b0392909216919091179055565b6124e8806107508339019056fe60806040526001600c5534801561001557600080fd5b50604080518082018252601281527120b63634b3b0ba37b9102628102a37b5b2b760711b6020918201528151808301835260018152603160f81b9082015281517f8b73c3c69bb8fe3d512ecc4cf759cc79239f7b179b0ffacaa9a75d522b39400f818301527fad0fb45cf62051aec10654f78a8372fd48c43225aa5cb076057f3e92c0fbea43818401527fc89efdaa54c0f20c7adf612882df0950f5a951637e0307cdcb4c672f298b8bc660608201524660808201523060a0808301919091528351808303909101815260c09091019092528151910120600355600580546001600160a01b031916331790556123d8806101106000396000f3fe608060405234801561001057600080fd5b50600436106101a95760003560e01c80636a627842116100f9578063ba9a7a5611610097578063d21220a711610071578063d21220a714610534578063d505accf1461053c578063dd62ed3e1461058d578063fff6cae9146105bb576101a9565b8063ba9a7a56146104fe578063bc25cf7714610506578063c45a01551461052c576101a9565b80637ecebe00116100d35780637ecebe001461046557806389afcb441461048b57806395d89b41146104ca578063a9059cbb146104d2576101a9565b80636a6278421461041157806370a08231146104375780637464fc3d1461045d576101a9565b806323b872dd116101665780633644e515116101405780633644e515146103cb578063485cc955146103d35780635909c0d5146104015780635a3d549314610409576101a9565b806323b872dd1461036f57806330adf81f146103a5578063313ce567146103ad576101a9565b8063022c0d9f146101ae57806306fdde031461023c5780630902f1ac146102b9578063095ea7b3146102f15780630dfe16811461033157806318160ddd14610355575b600080fd5b61023a600480360360808110156101c457600080fd5b8135916020810135916001600160a01b0360408301351691908101906080810160608201356401000000008111156101fb57600080fd5b82018360208201111561020d57600080fd5b8035906020019184600183028401116401000000008311171561022f57600080fd5b5090925090506105c3565b005b610244610adb565b6040805160208082528351818301528351919283929083019185019080838360005b8381101561027e578181015183820152602001610266565b50505050905090810190601f1680156102ab5780820380516001836020036101000a031916815260200191505b509250505060405180910390f35b6102c1610b09565b604080516001600160701b03948516815292909316602083015263ffffffff168183015290519081900360600190f35b61031d6004803603604081101561030757600080fd5b506001600160a01b038135169060200135610b33565b604080519115158252519081900360200190f35b610339610b4a565b604080516001600160a01b039092168252519081900360200190f35b61035d610b59565b60408051918252519081900360200190f35b61031d6004803603606081101561038557600080fd5b506001600160a01b03813581169160208101359091169060400135610b5f565b61035d610bf3565b6103b5610c17565b6040805160ff9092168252519081900360200190f35b61035d610c1c565b61023a600480360360408110156103e957600080fd5b506001600160a01b0381358116916020013516610c22565b61035d610caf565b61035d610cb5565b61035d6004803603602081101561042757600080fd5b50356001600160a01b0316610cbb565b61035d6004803603602081101561044d57600080fd5b50356001600160a01b031661113b565b61035d61114d565b61035d6004803603602081101561047b57600080fd5b50356001600160a01b0316611153565b6104b1600480360360208110156104a157600080fd5b50356001600160a01b0316611165565b6040805192835260208301919091528051918290030190f35b6102446114fd565b61031d600480360360408110156104e857600080fd5b506001600160a01b03813516906020013561151c565b61035d611529565b61023a6004803603602081101561051c57600080fd5b50356001600160a01b031661152f565b6103396116a5565b6103396116b4565b61023a600480360360e081101561055257600080fd5b506001600160a01b03813581169160208101359091169060408101359060608101359060ff6080820135169060a08101359060c001356116c3565b61035d600480360360408110156105a357600080fd5b506001600160a01b03813581169160200135166118ba565b61023a6118d7565b600c54600114610612576040805162461bcd60e51b8152602060048201526015602482015274105b1b1a59d85d1bdc94185a5c8e881313d0d2d151605a1b604482015290519081900360640190fd5b6000600c55841515806106255750600084115b6106605760405162461bcd60e51b81526004018080602001828103825260298152602001806122d76029913960400191505060405180910390fd5b60008061066b610b09565b5091509150816001600160701b0316871080156106905750806001600160701b031686105b6106cb5760405162461bcd60e51b81526004018080602001828103825260258152602001806122b26025913960400191505060405180910390fd5b60065460075460009182916001600160a01b039182169190811690891682148015906107095750806001600160a01b0316896001600160a01b031614155b61075a576040805162461bcd60e51b815260206004820152601960248201527f416c6c696761746f72506169723a20494e56414c49445f544f00000000000000604482015290519081900360640190fd5b8a1561076b5761076b828a8d611a3d565b891561077c5761077c818a8c611a3d565b861561082e57886001600160a01b03166379b3fd8f338d8d8c8c6040518663ffffffff1660e01b815260040180866001600160a01b03168152602001858152602001848152602001806020018281038252848482818152602001925080828437600081840152601f19601f8201169050808301925050509650505050505050600060405180830381600087803b15801561081557600080fd5b505af1158015610829573d6000803e3d6000fd5b505050505b604080516370a0823160e01b815230600482015290516001600160a01b038416916370a08231916024808301926020929190829003018186803b15801561087457600080fd5b505afa158015610888573d6000803e3d6000fd5b505050506040513d602081101561089e57600080fd5b5051604080516370a0823160e01b815230600482015290519195506001600160a01b038316916370a0823191602480820192602092909190829003018186803b1580156108ea57600080fd5b505afa1580156108fe573d6000803e3d6000fd5b505050506040513d602081101561091457600080fd5b5051925060009150506001600160701b0385168a90038311610937576000610946565b89856001600160701b03160383035b9050600089856001600160701b0316038311610963576000610972565b89856001600160701b03160383035b905060008211806109835750600081115b6109be5760405162461bcd60e51b815260040180806020018281038252602881526020018061232c6028913960400191505060405180910390fd5b60006109e06109ce846003611bd7565b6109da876103e8611bd7565b90611c3c565b905060006109f26109ce846003611bd7565b9050610a17620f4240610a116001600160701b038b8116908b16611bd7565b90611bd7565b610a218383611bd7565b1015610a67576040805162461bcd60e51b815260206004820152601060248201526f416c6c696761746f72506169723a204b60801b604482015290519081900360640190fd5b5050610a7584848888611c8a565b60408051838152602081018390528082018d9052606081018c905290516001600160a01b038b169133917fd78ad95fa46c994b6551d0da85fc275fe613ce37657fb8d5e3d130840159d8229181900360800190a350506001600c55505050505050505050565b6040518060400160405280601281526020017120b63634b3b0ba37b9102628102a37b5b2b760711b81525081565b6008546001600160701b0380821692600160701b830490911691600160e01b900463ffffffff1690565b6000610b40338484611e53565b5060015b92915050565b6006546001600160a01b031681565b60005481565b6001600160a01b038316600090815260026020908152604080832033845290915281205460001914610bde576001600160a01b0384166000908152600260209081526040808320338452909152902054610bb99083611c3c565b6001600160a01b03851660009081526002602090815260408083203384529091529020555b610be9848484611eb5565b5060019392505050565b7f6e71edae12b1b97f4d1f60370fef10105fa2faae0126114a169c64845d6126c981565b601281565b60035481565b6005546001600160a01b03163314610c81576040805162461bcd60e51b815260206004820152601860248201527f416c6c696761746f72506169723a20464f5242494444454e0000000000000000604482015290519081900360640190fd5b600680546001600160a01b039384166001600160a01b03199182161790915560078054929093169116179055565b60095481565b600a5481565b6000600c54600114610d0c576040805162461bcd60e51b8152602060048201526015602482015274105b1b1a59d85d1bdc94185a5c8e881313d0d2d151605a1b604482015290519081900360640190fd5b6000600c81905580610d1c610b09565b50600654604080516370a0823160e01b815230600482015290519395509193506000926001600160a01b03909116916370a08231916024808301926020929190829003018186803b158015610d7057600080fd5b505afa158015610d84573d6000803e3d6000fd5b505050506040513d6020811015610d9a57600080fd5b5051600754604080516370a0823160e01b815230600482015290519293506000926001600160a01b03909216916370a0823191602480820192602092909190829003018186803b158015610ded57600080fd5b505afa158015610e01573d6000803e3d6000fd5b505050506040513d6020811015610e1757600080fd5b505190506000610e30836001600160701b038716611c3c565b90506000610e47836001600160701b038716611c3c565b90506000610e558787611f63565b6000549091508061102c5760055460408051637cd07e4760e01b815290516000926001600160a01b031691637cd07e47916004808301926020929190829003018186803b158015610ea557600080fd5b505afa158015610eb9573d6000803e3d6000fd5b505050506040513d6020811015610ecf57600080fd5b50519050336001600160a01b0382161415610faa57806001600160a01b03166340dc0e376040518163ffffffff1660e01b815260040160206040518083038186803b158015610f1d57600080fd5b505afa158015610f31573d6000803e3d6000fd5b505050506040513d6020811015610f4757600080fd5b505199508915801590610f5c57506000198a14155b610fa5576040805162461bcd60e51b81526020600482015260156024820152744261642064657369726564206c697175696469747960581b604482015290519081900360640190fd5b611026565b6001600160a01b03811615610fff576040805162461bcd60e51b815260206004820152601660248201527526bab9ba103737ba103430bb329036b4b3b930ba37b960511b604482015290519081900360640190fd5b6110176103e86109da6110128888611bd7565b6120a3565b995061102660006103e86120f5565b5061106f565b61106c6001600160701b0389166110438684611bd7565b8161104a57fe5b046001600160701b03891661105f8685611bd7565b8161106657fe5b0461217f565b98505b600089116110ae5760405162461bcd60e51b815260040180806020018281038252602c815260200180612300602c913960400191505060405180910390fd5b6110b88a8a6120f5565b6110c486868a8a611c8a565b81156110ee576008546110ea906001600160701b0380821691600160701b900416611bd7565b600b555b6040805185815260208101859052815133927f4c209b5fc8ad50758f13e2e1088ba56a560dff690a1c6fef26394f4c03821c4f928290030190a250506001600c5550949695505050505050565b60016020526000908152604090205481565b600b5481565b60046020526000908152604090205481565b600080600c546001146111b7576040805162461bcd60e51b8152602060048201526015602482015274105b1b1a59d85d1bdc94185a5c8e881313d0d2d151605a1b604482015290519081900360640190fd5b6000600c819055806111c7610b09565b50600654600754604080516370a0823160e01b815230600482015290519496509294506001600160a01b039182169391169160009184916370a08231916024808301926020929190829003018186803b15801561122357600080fd5b505afa158015611237573d6000803e3d6000fd5b505050506040513d602081101561124d57600080fd5b5051604080516370a0823160e01b815230600482015290519192506000916001600160a01b038516916370a08231916024808301926020929190829003018186803b15801561129b57600080fd5b505afa1580156112af573d6000803e3d6000fd5b505050506040513d60208110156112c557600080fd5b5051306000908152600160205260408120549192506112e48888611f63565b600054909150806112f58487611bd7565b816112fc57fe5b049a508061130a8486611bd7565b8161131157fe5b04995060008b118015611324575060008a115b61135f5760405162461bcd60e51b815260040180806020018281038252602c815260200180612354602c913960400191505060405180910390fd5b6113693084612197565b611374878d8d611a3d565b61137f868d8c611a3d565b604080516370a0823160e01b815230600482015290516001600160a01b038916916370a08231916024808301926020929190829003018186803b1580156113c557600080fd5b505afa1580156113d9573d6000803e3d6000fd5b505050506040513d60208110156113ef57600080fd5b5051604080516370a0823160e01b815230600482015290519196506001600160a01b038816916370a0823191602480820192602092909190829003018186803b15801561143b57600080fd5b505afa15801561144f573d6000803e3d6000fd5b505050506040513d602081101561146557600080fd5b5051935061147585858b8b611c8a565b811561149f5760085461149b906001600160701b0380821691600160701b900416611bd7565b600b555b604080518c8152602081018c905281516001600160a01b038f169233927fdccd412f0b1252819cb1fd330b93224ca42612892bb3f4f789976e6d81936496929081900390910190a35050505050505050506001600c81905550915091565b604051806040016040528060038152602001620414c560ec1b81525081565b6000610b40338484611eb5565b6103e881565b600c5460011461157e576040805162461bcd60e51b8152602060048201526015602482015274105b1b1a59d85d1bdc94185a5c8e881313d0d2d151605a1b604482015290519081900360640190fd5b6000600c55600654600754600854604080516370a0823160e01b815230600482015290516001600160a01b0394851694909316926116279285928792611622926001600160701b03169185916370a0823191602480820192602092909190829003018186803b1580156115f057600080fd5b505afa158015611604573d6000803e3d6000fd5b505050506040513d602081101561161a57600080fd5b505190611c3c565b611a3d565b61169b81846116226008600e9054906101000a90046001600160701b03166001600160701b0316856001600160a01b03166370a08231306040518263ffffffff1660e01b815260040180826001600160a01b0316815260200191505060206040518083038186803b1580156115f057600080fd5b50506001600c5550565b6005546001600160a01b031681565b6007546001600160a01b031681565b42841015611718576040805162461bcd60e51b815260206004820152601960248201527f416c6c696761746f724c70546f6b656e3a204558504952454400000000000000604482015290519081900360640190fd5b6003546001600160a01b0380891660008181526004602090815260408083208054600180820190925582517f6e71edae12b1b97f4d1f60370fef10105fa2faae0126114a169c64845d6126c98186015280840196909652958d166060860152608085018c905260a085019590955260c08085018b90528151808603909101815260e08501825280519083012061190160f01b6101008601526101028501969096526101228085019690965280518085039096018652610142840180825286519683019690962095839052610162840180825286905260ff89166101828501526101a284018890526101c28401879052519193926101e280820193601f1981019281900390910190855afa158015611833573d6000803e3d6000fd5b5050604051601f1901519150506001600160a01b038116158015906118695750886001600160a01b0316816001600160a01b0316145b6118a45760405162461bcd60e51b81526004018080602001828103825260238152602001806123806023913960400191505060405180910390fd5b6118af898989611e53565b505050505050505050565b600260209081526000928352604080842090915290825290205481565b600c54600114611926576040805162461bcd60e51b8152602060048201526015602482015274105b1b1a59d85d1bdc94185a5c8e881313d0d2d151605a1b604482015290519081900360640190fd5b6000600c55600654604080516370a0823160e01b81523060048201529051611a36926001600160a01b0316916370a08231916024808301926020929190829003018186803b15801561197757600080fd5b505afa15801561198b573d6000803e3d6000fd5b505050506040513d60208110156119a157600080fd5b5051600754604080516370a0823160e01b815230600482015290516001600160a01b03909216916370a0823191602480820192602092909190829003018186803b1580156119ee57600080fd5b505afa158015611a02573d6000803e3d6000fd5b505050506040513d6020811015611a1857600080fd5b50516008546001600160701b0380821691600160701b900416611c8a565b6001600c55565b604080518082018252601981527f7472616e7366657228616464726573732c75696e74323536290000000000000060209182015281516001600160a01b0385811660248301526044808301869052845180840390910181526064909201845291810180516001600160e01b031663a9059cbb60e01b1781529251815160009460609489169392918291908083835b60208310611aea5780518252601f199092019160209182019101611acb565b6001836020036101000a0380198251168184511680821785525050505050509050019150506000604051808303816000865af19150503d8060008114611b4c576040519150601f19603f3d011682016040523d82523d6000602084013e611b51565b606091505b5091509150818015611b7f575080511580611b7f5750808060200190516020811015611b7c57600080fd5b50515b611bd0576040805162461bcd60e51b815260206004820152601e60248201527f416c6c696761746f72506169723a205452414e534645525f4641494c45440000604482015290519081900360640190fd5b5050505050565b6000811580611bf257505080820282828281611bef57fe5b04145b610b44576040805162461bcd60e51b8152602060048201526016602482015275536166654d6174683a204d756c204f766572666c6f7760501b604482015290519081900360640190fd5b80820382811115610b44576040805162461bcd60e51b8152602060048201526013602482015272536166654d6174683a20556e646572666c6f7760681b604482015290519081900360640190fd5b6001600160701b038411801590611ca857506001600160701b038311155b611cf9576040805162461bcd60e51b815260206004820152601760248201527f416c6c696761746f72506169723a204f564552464c4f57000000000000000000604482015290519081900360640190fd5b60085463ffffffff42811691600160e01b90048116820390811615801590611d2957506001600160701b03841615155b8015611d3d57506001600160701b03831615155b15611da8578063ffffffff16611d6585611d5686612229565b6001600160e01b03169061223b565b600980546001600160e01b03929092169290920201905563ffffffff8116611d9084611d5687612229565b600a80546001600160e01b0392909216929092020190555b600880546dffffffffffffffffffffffffffff19166001600160701b03888116919091176dffffffffffffffffffffffffffff60701b1916600160701b8883168102919091176001600160e01b0316600160e01b63ffffffff871602179283905560408051848416815291909304909116602082015281517f1c411e9a96e071241c2f21f7726b17ae89e3cab4c78be50e062b03a9fffbbad1929181900390910190a1505050505050565b6001600160a01b03808416600081815260026020908152604080832094871680845294825291829020859055815185815291517f8c5be1e5ebec7d5bd14f71427d1e84f3dd0314c0f7b2291e5b200ac8c7c3b9259281900390910190a3505050565b6001600160a01b038316600090815260016020526040902054611ed89082611c3c565b6001600160a01b038085166000908152600160205260408082209390935590841681522054611f079082612260565b6001600160a01b0380841660008181526001602090815260409182902094909455805185815290519193928716927fddf252ad1be2c89b69c2b068fc378daa952ba7f163c4a11628f55a4df523b3ef92918290030190a3505050565b600080600560009054906101000a90046001600160a01b03166001600160a01b031663017e7e586040518163ffffffff1660e01b815260040160206040518083038186803b158015611fb457600080fd5b505afa158015611fc8573d6000803e3d6000fd5b505050506040513d6020811015611fde57600080fd5b5051600b546001600160a01b03821615801594509192509061208f57801561208a57600061201b6110126001600160701b03888116908816611bd7565b90506000612028836120a3565b90508082111561208757600061204a6120418484611c3c565b60005490611bd7565b905060006120638361205d866005611bd7565b90612260565b9050600081838161207057fe5b04905080156120835761208387826120f5565b5050505b50505b61209b565b801561209b576000600b555b505092915050565b600060038211156120e6575080600160028204015b818110156120e0578091506002818285816120cf57fe5b0401816120d857fe5b0490506120b8565b506120f0565b81156120f0575060015b919050565b6000546121029082612260565b60009081556001600160a01b0383168152600160205260409020546121279082612260565b6001600160a01b03831660008181526001602090815260408083209490945583518581529351929391927fddf252ad1be2c89b69c2b068fc378daa952ba7f163c4a11628f55a4df523b3ef9281900390910190a35050565b600081831061218e5781612190565b825b9392505050565b6001600160a01b0382166000908152600160205260409020546121ba9082611c3c565b6001600160a01b038316600090815260016020526040812091909155546121e19082611c3c565b60009081556040805183815290516001600160a01b038516917fddf252ad1be2c89b69c2b068fc378daa952ba7f163c4a11628f55a4df523b3ef919081900360200190a35050565b6001600160701b0316600160701b0290565b60006001600160701b0382166001600160e01b0384168161225857fe5b049392505050565b81810181811015610b44576040805162461bcd60e51b8152602060048201526016602482015275536166654d6174683a20416464204f766572666c6f7760501b604482015290519081900360640190fdfe416c6c696761746f72506169723a20494e53554646494349454e545f4c4951554944495459416c6c696761746f72506169723a20494e53554646494349454e545f4f55545055545f414d4f554e54416c6c696761746f72506169723a20494e53554646494349454e545f4c49515549444954595f4d494e544544416c6c696761746f72506169723a20494e53554646494349454e545f494e5055545f414d4f554e54416c6c696761746f72506169723a20494e53554646494349454e545f4c49515549444954595f4255524e4544416c6c696761746f724c70546f6b656e3a20494e56414c49445f5349474e4154555245a26469706673582212207c0bdd64325840a49ca2a5f327661a0b504c5680f06a8488f0f7997860e7c2aa64736f6c634300060c0033416c6c696761746f72466163746f72793a204944454e544943414c5f414444524553534553a2646970667358221220e96ab7ff466656d3784d59e50b8e407247d2d5ba79a87aa44b57253d1843411b64736f6c634300060c0033",
  "devdoc": {
    "kind": "dev",
    "methods": {},
    "version": 1
  },
  "userdoc": {
    "kind": "user",
    "methods": {},
    "version": 1
  },
  "storageLayout": {
    "storage": [
      {
        "astId": 9928,
        "contract": "contracts/operations/AlligatorFactory.sol:AlligatorFactory",
        "label": "feeTo",
        "offset": 0,
        "slot": "0",
        "type": "t_address"
      },
      {
        "astId": 9931,
        "contract": "contracts/operations/AlligatorFactory.sol:AlligatorFactory",
        "label": "feeToSetter",
        "offset": 0,
        "slot": "1",
        "type": "t_address"
      },
      {
        "astId": 9934,
        "contract": "contracts/operations/AlligatorFactory.sol:AlligatorFactory",
        "label": "migrator",
        "offset": 0,
        "slot": "2",
        "type": "t_address"
      },
      {
        "astId": 9941,
        "contract": "contracts/operations/AlligatorFactory.sol:AlligatorFactory",
        "label": "getPair",
        "offset": 0,
        "slot": "3",
        "type": "t_mapping(t_address,t_mapping(t_address,t_address))"
      },
      {
        "astId": 9945,
        "contract": "contracts/operations/AlligatorFactory.sol:AlligatorFactory",
        "label": "allPairs",
        "offset": 0,
        "slot": "4",
        "type": "t_array(t_address)dyn_storage"
      }
    ],
    "types": {
      "t_address": {
        "encoding": "inplace",
        "label": "address",
        "numberOfBytes": "20"
      },
      "t_array(t_address)dyn_storage": {
        "base": "t_address",
        "encoding": "dynamic_array",
        "label": "address[]",
        "numberOfBytes": "32"
      },
      "t_mapping(t_address,t_address)": {
        "encoding": "mapping",
        "key": "t_address",
        "label": "mapping(address => address)",
        "numberOfBytes": "32",
        "value": "t_address"
      },
      "t_mapping(t_address,t_mapping(t_address,t_address))": {
        "encoding": "mapping",
        "key": "t_address",
        "label": "mapping(address => mapping(address => address))",
        "numberOfBytes": "32",
        "value": "t_mapping(t_address,t_address)"
      }
    }
  }
}