{
  "address": "0xee9606667A41aFC4e3337Cc79DC50E1d7ed3aB3a",
  "abi": [
    {
      "inputs": [
        {
          "internalType": "address",
          "name": "_factory",
          "type": "address"
        },
        {
          "internalType": "address",
          "name": "_WAVAX",
          "type": "address"
        }
      ],
      "stateMutability": "nonpayable",
      "type": "constructor"
    },
    {
      "inputs": [],
      "name": "WAVAX",
      "outputs": [
        {
          "internalType": "address",
          "name": "",
          "type": "address"
        }
      ],
      "stateMutability": "view",
      "type": "function"
    },
    {
      "inputs": [
        {
          "internalType": "address",
          "name": "tokenA",
          "type": "address"
        },
        {
          "internalType": "address",
          "name": "tokenB",
          "type": "address"
        },
        {
          "internalType": "uint256",
          "name": "amountADesired",
          "type": "uint256"
        },
        {
          "internalType": "uint256",
          "name": "amountBDesired",
          "type": "uint256"
        },
        {
          "internalType": "uint256",
          "name": "amountAMin",
          "type": "uint256"
        },
        {
          "internalType": "uint256",
          "name": "amountBMin",
          "type": "uint256"
        },
        {
          "internalType": "address",
          "name": "to",
          "type": "address"
        },
        {
          "internalType": "uint256",
          "name": "deadline",
          "type": "uint256"
        }
      ],
      "name": "addLiquidity",
      "outputs": [
        {
          "internalType": "uint256",
          "name": "amountA",
          "type": "uint256"
        },
        {
          "internalType": "uint256",
          "name": "amountB",
          "type": "uint256"
        },
        {
          "internalType": "uint256",
          "name": "liquidity",
          "type": "uint256"
        }
      ],
      "stateMutability": "nonpayable",
      "type": "function"
    },
    {
      "inputs": [
        {
          "internalType": "address",
          "name": "token",
          "type": "address"
        },
        {
          "internalType": "uint256",
          "name": "amountTokenDesired",
          "type": "uint256"
        },
        {
          "internalType": "uint256",
          "name": "amountTokenMin",
          "type": "uint256"
        },
        {
          "internalType": "uint256",
          "name": "amountAVAXMin",
          "type": "uint256"
        },
        {
          "internalType": "address",
          "name": "to",
          "type": "address"
        },
        {
          "internalType": "uint256",
          "name": "deadline",
          "type": "uint256"
        }
      ],
      "name": "addLiquidityAVAX",
      "outputs": [
        {
          "internalType": "uint256",
          "name": "amountToken",
          "type": "uint256"
        },
        {
          "internalType": "uint256",
          "name": "amountAVAX",
          "type": "uint256"
        },
        {
          "internalType": "uint256",
          "name": "liquidity",
          "type": "uint256"
        }
      ],
      "stateMutability": "payable",
      "type": "function"
    },
    {
      "inputs": [],
      "name": "factory",
      "outputs": [
        {
          "internalType": "address",
          "name": "",
          "type": "address"
        }
      ],
      "stateMutability": "view",
      "type": "function"
    },
    {
      "inputs": [
        {
          "internalType": "uint256",
          "name": "amountOut",
          "type": "uint256"
        },
        {
          "internalType": "uint256",
          "name": "reserveIn",
          "type": "uint256"
        },
        {
          "internalType": "uint256",
          "name": "reserveOut",
          "type": "uint256"
        }
      ],
      "name": "getAmountIn",
      "outputs": [
        {
          "internalType": "uint256",
          "name": "amountIn",
          "type": "uint256"
        }
      ],
      "stateMutability": "pure",
      "type": "function"
    },
    {
      "inputs": [
        {
          "internalType": "uint256",
          "name": "amountIn",
          "type": "uint256"
        },
        {
          "internalType": "uint256",
          "name": "reserveIn",
          "type": "uint256"
        },
        {
          "internalType": "uint256",
          "name": "reserveOut",
          "type": "uint256"
        }
      ],
      "name": "getAmountOut",
      "outputs": [
        {
          "internalType": "uint256",
          "name": "amountOut",
          "type": "uint256"
        }
      ],
      "stateMutability": "pure",
      "type": "function"
    },
    {
      "inputs": [
        {
          "internalType": "uint256",
          "name": "amountOut",
          "type": "uint256"
        },
        {
          "internalType": "address[]",
          "name": "path",
          "type": "address[]"
        }
      ],
      "name": "getAmountsIn",
      "outputs": [
        {
          "internalType": "uint256[]",
          "name": "amounts",
          "type": "uint256[]"
        }
      ],
      "stateMutability": "view",
      "type": "function"
    },
    {
      "inputs": [
        {
          "internalType": "uint256",
          "name": "amountIn",
          "type": "uint256"
        },
        {
          "internalType": "address[]",
          "name": "path",
          "type": "address[]"
        }
      ],
      "name": "getAmountsOut",
      "outputs": [
        {
          "internalType": "uint256[]",
          "name": "amounts",
          "type": "uint256[]"
        }
      ],
      "stateMutability": "view",
      "type": "function"
    },
    {
      "inputs": [
        {
          "internalType": "uint256",
          "name": "amountA",
          "type": "uint256"
        },
        {
          "internalType": "uint256",
          "name": "reserveA",
          "type": "uint256"
        },
        {
          "internalType": "uint256",
          "name": "reserveB",
          "type": "uint256"
        }
      ],
      "name": "quote",
      "outputs": [
        {
          "internalType": "uint256",
          "name": "amountB",
          "type": "uint256"
        }
      ],
      "stateMutability": "pure",
      "type": "function"
    },
    {
      "inputs": [
        {
          "internalType": "address",
          "name": "tokenA",
          "type": "address"
        },
        {
          "internalType": "address",
          "name": "tokenB",
          "type": "address"
        },
        {
          "internalType": "uint256",
          "name": "liquidity",
          "type": "uint256"
        },
        {
          "internalType": "uint256",
          "name": "amountAMin",
          "type": "uint256"
        },
        {
          "internalType": "uint256",
          "name": "amountBMin",
          "type": "uint256"
        },
        {
          "internalType": "address",
          "name": "to",
          "type": "address"
        },
        {
          "internalType": "uint256",
          "name": "deadline",
          "type": "uint256"
        }
      ],
      "name": "removeLiquidity",
      "outputs": [
        {
          "internalType": "uint256",
          "name": "amountA",
          "type": "uint256"
        },
        {
          "internalType": "uint256",
          "name": "amountB",
          "type": "uint256"
        }
      ],
      "stateMutability": "nonpayable",
      "type": "function"
    },
    {
      "inputs": [
        {
          "internalType": "address",
          "name": "token",
          "type": "address"
        },
        {
          "internalType": "uint256",
          "name": "liquidity",
          "type": "uint256"
        },
        {
          "internalType": "uint256",
          "name": "amountTokenMin",
          "type": "uint256"
        },
        {
          "internalType": "uint256",
          "name": "amountAVAXMin",
          "type": "uint256"
        },
        {
          "internalType": "address",
          "name": "to",
          "type": "address"
        },
        {
          "internalType": "uint256",
          "name": "deadline",
          "type": "uint256"
        }
      ],
      "name": "removeLiquidityAVAX",
      "outputs": [
        {
          "internalType": "uint256",
          "name": "amountToken",
          "type": "uint256"
        },
        {
          "internalType": "uint256",
          "name": "amountAVAX",
          "type": "uint256"
        }
      ],
      "stateMutability": "nonpayable",
      "type": "function"
    },
    {
      "inputs": [
        {
          "internalType": "address",
          "name": "token",
          "type": "address"
        },
        {
          "internalType": "uint256",
          "name": "liquidity",
          "type": "uint256"
        },
        {
          "internalType": "uint256",
          "name": "amountTokenMin",
          "type": "uint256"
        },
        {
          "internalType": "uint256",
          "name": "amountAVAXMin",
          "type": "uint256"
        },
        {
          "internalType": "address",
          "name": "to",
          "type": "address"
        },
        {
          "internalType": "uint256",
          "name": "deadline",
          "type": "uint256"
        }
      ],
      "name": "removeLiquidityAVAXSupportingFeeOnTransferTokens",
      "outputs": [
        {
          "internalType": "uint256",
          "name": "amountAVAX",
          "type": "uint256"
        }
      ],
      "stateMutability": "nonpayable",
      "type": "function"
    },
    {
      "inputs": [
        {
          "internalType": "address",
          "name": "token",
          "type": "address"
        },
        {
          "internalType": "uint256",
          "name": "liquidity",
          "type": "uint256"
        },
        {
          "internalType": "uint256",
          "name": "amountTokenMin",
          "type": "uint256"
        },
        {
          "internalType": "uint256",
          "name": "amountAVAXMin",
          "type": "uint256"
        },
        {
          "internalType": "address",
          "name": "to",
          "type": "address"
        },
        {
          "internalType": "uint256",
          "name": "deadline",
          "type": "uint256"
        },
        {
          "internalType": "bool",
          "name": "approveMax",
          "type": "bool"
        },
        {
          "internalType": "uint8",
          "name": "v",
          "type": "uint8"
        },
        {
          "internalType": "bytes32",
          "name": "r",
          "type": "bytes32"
        },
        {
          "internalType": "bytes32",
          "name": "s",
          "type": "bytes32"
        }
      ],
      "name": "removeLiquidityAVAXWithPermit",
      "outputs": [
        {
          "internalType": "uint256",
          "name": "amountToken",
          "type": "uint256"
        },
        {
          "internalType": "uint256",
          "name": "amountAVAX",
          "type": "uint256"
        }
      ],
      "stateMutability": "nonpayable",
      "type": "function"
    },
    {
      "inputs": [
        {
          "internalType": "address",
          "name": "token",
          "type": "address"
        },
        {
          "internalType": "uint256",
          "name": "liquidity",
          "type": "uint256"
        },
        {
          "internalType": "uint256",
          "name": "amountTokenMin",
          "type": "uint256"
        },
        {
          "internalType": "uint256",
          "name": "amountAVAXMin",
          "type": "uint256"
        },
        {
          "internalType": "address",
          "name": "to",
          "type": "address"
        },
        {
          "internalType": "uint256",
          "name": "deadline",
          "type": "uint256"
        },
        {
          "internalType": "bool",
          "name": "approveMax",
          "type": "bool"
        },
        {
          "internalType": "uint8",
          "name": "v",
          "type": "uint8"
        },
        {
          "internalType": "bytes32",
          "name": "r",
          "type": "bytes32"
        },
        {
          "internalType": "bytes32",
          "name": "s",
          "type": "bytes32"
        }
      ],
      "name": "removeLiquidityAVAXWithPermitSupportingFeeOnTransferTokens",
      "outputs": [
        {
          "internalType": "uint256",
          "name": "amountAVAX",
          "type": "uint256"
        }
      ],
      "stateMutability": "nonpayable",
      "type": "function"
    },
    {
      "inputs": [
        {
          "internalType": "address",
          "name": "tokenA",
          "type": "address"
        },
        {
          "internalType": "address",
          "name": "tokenB",
          "type": "address"
        },
        {
          "internalType": "uint256",
          "name": "liquidity",
          "type": "uint256"
        },
        {
          "internalType": "uint256",
          "name": "amountAMin",
          "type": "uint256"
        },
        {
          "internalType": "uint256",
          "name": "amountBMin",
          "type": "uint256"
        },
        {
          "internalType": "address",
          "name": "to",
          "type": "address"
        },
        {
          "internalType": "uint256",
          "name": "deadline",
          "type": "uint256"
        },
        {
          "internalType": "bool",
          "name": "approveMax",
          "type": "bool"
        },
        {
          "internalType": "uint8",
          "name": "v",
          "type": "uint8"
        },
        {
          "internalType": "bytes32",
          "name": "r",
          "type": "bytes32"
        },
        {
          "internalType": "bytes32",
          "name": "s",
          "type": "bytes32"
        }
      ],
      "name": "removeLiquidityWithPermit",
      "outputs": [
        {
          "internalType": "uint256",
          "name": "amountA",
          "type": "uint256"
        },
        {
          "internalType": "uint256",
          "name": "amountB",
          "type": "uint256"
        }
      ],
      "stateMutability": "nonpayable",
      "type": "function"
    },
    {
      "inputs": [
        {
          "internalType": "uint256",
          "name": "amountOut",
          "type": "uint256"
        },
        {
          "internalType": "address[]",
          "name": "path",
          "type": "address[]"
        },
        {
          "internalType": "address",
          "name": "to",
          "type": "address"
        },
        {
          "internalType": "uint256",
          "name": "deadline",
          "type": "uint256"
        }
      ],
      "name": "swapAVAXForExactTokens",
      "outputs": [
        {
          "internalType": "uint256[]",
          "name": "amounts",
          "type": "uint256[]"
        }
      ],
      "stateMutability": "payable",
      "type": "function"
    },
    {
      "inputs": [
        {
          "internalType": "uint256",
          "name": "amountOutMin",
          "type": "uint256"
        },
        {
          "internalType": "address[]",
          "name": "path",
          "type": "address[]"
        },
        {
          "internalType": "address",
          "name": "to",
          "type": "address"
        },
        {
          "internalType": "uint256",
          "name": "deadline",
          "type": "uint256"
        }
      ],
      "name": "swapExactAVAXForTokens",
      "outputs": [
        {
          "internalType": "uint256[]",
          "name": "amounts",
          "type": "uint256[]"
        }
      ],
      "stateMutability": "payable",
      "type": "function"
    },
    {
      "inputs": [
        {
          "internalType": "uint256",
          "name": "amountOutMin",
          "type": "uint256"
        },
        {
          "internalType": "address[]",
          "name": "path",
          "type": "address[]"
        },
        {
          "internalType": "address",
          "name": "to",
          "type": "address"
        },
        {
          "internalType": "uint256",
          "name": "deadline",
          "type": "uint256"
        }
      ],
      "name": "swapExactAVAXForTokensSupportingFeeOnTransferTokens",
      "outputs": [],
      "stateMutability": "payable",
      "type": "function"
    },
    {
      "inputs": [
        {
          "internalType": "uint256",
          "name": "amountIn",
          "type": "uint256"
        },
        {
          "internalType": "uint256",
          "name": "amountOutMin",
          "type": "uint256"
        },
        {
          "internalType": "address[]",
          "name": "path",
          "type": "address[]"
        },
        {
          "internalType": "address",
          "name": "to",
          "type": "address"
        },
        {
          "internalType": "uint256",
          "name": "deadline",
          "type": "uint256"
        }
      ],
      "name": "swapExactTokensForAVAX",
      "outputs": [
        {
          "internalType": "uint256[]",
          "name": "amounts",
          "type": "uint256[]"
        }
      ],
      "stateMutability": "nonpayable",
      "type": "function"
    },
    {
      "inputs": [
        {
          "internalType": "uint256",
          "name": "amountIn",
          "type": "uint256"
        },
        {
          "internalType": "uint256",
          "name": "amountOutMin",
          "type": "uint256"
        },
        {
          "internalType": "address[]",
          "name": "path",
          "type": "address[]"
        },
        {
          "internalType": "address",
          "name": "to",
          "type": "address"
        },
        {
          "internalType": "uint256",
          "name": "deadline",
          "type": "uint256"
        }
      ],
      "name": "swapExactTokensForAVAXSupportingFeeOnTransferTokens",
      "outputs": [],
      "stateMutability": "nonpayable",
      "type": "function"
    },
    {
      "inputs": [
        {
          "internalType": "uint256",
          "name": "amountIn",
          "type": "uint256"
        },
        {
          "internalType": "uint256",
          "name": "amountOutMin",
          "type": "uint256"
        },
        {
          "internalType": "address[]",
          "name": "path",
          "type": "address[]"
        },
        {
          "internalType": "address",
          "name": "to",
          "type": "address"
        },
        {
          "internalType": "uint256",
          "name": "deadline",
          "type": "uint256"
        }
      ],
      "name": "swapExactTokensForTokens",
      "outputs": [
        {
          "internalType": "uint256[]",
          "name": "amounts",
          "type": "uint256[]"
        }
      ],
      "stateMutability": "nonpayable",
      "type": "function"
    },
    {
      "inputs": [
        {
          "internalType": "uint256",
          "name": "amountIn",
          "type": "uint256"
        },
        {
          "internalType": "uint256",
          "name": "amountOutMin",
          "type": "uint256"
        },
        {
          "internalType": "address[]",
          "name": "path",
          "type": "address[]"
        },
        {
          "internalType": "address",
          "name": "to",
          "type": "address"
        },
        {
          "internalType": "uint256",
          "name": "deadline",
          "type": "uint256"
        }
      ],
      "name": "swapExactTokensForTokensSupportingFeeOnTransferTokens",
      "outputs": [],
      "stateMutability": "nonpayable",
      "type": "function"
    },
    {
      "inputs": [
        {
          "internalType": "uint256",
          "name": "amountOut",
          "type": "uint256"
        },
        {
          "internalType": "uint256",
          "name": "amountInMax",
          "type": "uint256"
        },
        {
          "internalType": "address[]",
          "name": "path",
          "type": "address[]"
        },
        {
          "internalType": "address",
          "name": "to",
          "type": "address"
        },
        {
          "internalType": "uint256",
          "name": "deadline",
          "type": "uint256"
        }
      ],
      "name": "swapTokensForExactAVAX",
      "outputs": [
        {
          "internalType": "uint256[]",
          "name": "amounts",
          "type": "uint256[]"
        }
      ],
      "stateMutability": "nonpayable",
      "type": "function"
    },
    {
      "inputs": [
        {
          "internalType": "uint256",
          "name": "amountOut",
          "type": "uint256"
        },
        {
          "internalType": "uint256",
          "name": "amountInMax",
          "type": "uint256"
        },
        {
          "internalType": "address[]",
          "name": "path",
          "type": "address[]"
        },
        {
          "internalType": "address",
          "name": "to",
          "type": "address"
        },
        {
          "internalType": "uint256",
          "name": "deadline",
          "type": "uint256"
        }
      ],
      "name": "swapTokensForExactTokens",
      "outputs": [
        {
          "internalType": "uint256[]",
          "name": "amounts",
          "type": "uint256[]"
        }
      ],
      "stateMutability": "nonpayable",
      "type": "function"
    },
    {
      "stateMutability": "payable",
      "type": "receive"
    }
  ],
  "transactionHash": "0xaf4d2be5acbcd47c4b34cf3b0ab8b43a933933a403820a2d1bae882156e17ea5",
  "args": [
    "0x4DD457452c950FAfdfd4165fE0862584c7d67012",
    "0xd00ae08403B9bbb9124bB305C09058E32C39A48c"
  ],
  "solcInputHash": "892a2726a32c789d2cae6756b49c1713",
  "bytecode": "0x60c060405234801561001057600080fd5b50604051620046ea380380620046ea8339818101604052604081101561003557600080fd5b5080516020909101516001600160601b0319606092831b8116608052911b1660a05260805160601c60a05160601c614565620001856000398061015f5280610e085280610f3d5280610f7852806114bb528061164b5280611701528061176f528061182352806118f752806119d25280611aac5280611b825280611e0c5280611f4f5280611fd75280612171528061229d52806123e3528061246b528061285052806128e552806129595280612d2a5280612d805280612db45280612e28525080610cb35280610cec5280610de65280611055528061112c528061125852806115495280611c105280611d165280611e9f5280612009528061214f5280612330528061249d52806125f052806127e8528061298b5280612b825280612c0b5280612d5e52806137f8528061383b52806139dd5280613b535280613f425280613ffb52806140ae52506145656000f3fe60806040526004361061014f5760003560e01c806385f8c259116100b6578063baa2abde1161006f578063baa2abde14610a26578063c45a015514610a83578063c57559dd14610a98578063d06ca61f14610b1c578063e8e3370014610bd1578063f91b3f7214610c5157610188565b806385f8c259146107a95780638803dbee146107df5780638a657e67146108755780639fc27226146108f9578063a2a1623d1461096c578063ad615dec146109f057610188565b80635c11d795116101085780635c11d795146104cd578063676528d11461056357806373b295c2146105f957806373bc79cf1461062a578063762b15621461067d5780637a42416a1461071357610188565b8063054d50d41461018d5780631f00ca74146101d55780632195995c146102da5780632c4070241461037157806333c6b725146103e457806338ed17391461043757610188565b3661018857336001600160a01b037f0000000000000000000000000000000000000000000000000000000000000000161461018657fe5b005b600080fd5b34801561019957600080fd5b506101c3600480360360608110156101b057600080fd5b5080359060208101359060400135610c97565b60408051918252519081900360200190f35b3480156101e157600080fd5b5061028a600480360360408110156101f857600080fd5b81359190810190604081016020820135600160201b81111561021957600080fd5b82018360208201111561022b57600080fd5b803590602001918460208302840111600160201b8311171561024c57600080fd5b919080806020026020016040519081016040528093929190818152602001838360200280828437600092019190915250929550610cac945050505050565b60408051602080825283518183015283519192839290830191858101910280838360005b838110156102c65781810151838201526020016102ae565b505050509050019250505060405180910390f35b3480156102e657600080fd5b5061035860048036036101608110156102fe57600080fd5b506001600160a01b038135811691602081013582169160408201359160608101359160808201359160a08101359091169060c08101359060e081013515159060ff6101008201351690610120810135906101400135610ce2565b6040805192835260208301919091528051918290030190f35b34801561037d57600080fd5b50610358600480360361014081101561039557600080fd5b506001600160a01b0381358116916020810135916040820135916060810135916080820135169060a08101359060c081013515159060ff60e08201351690610100810135906101200135610ddc565b3480156103f057600080fd5b50610358600480360360c081101561040757600080fd5b506001600160a01b0381358116916020810135916040820135916060810135916080820135169060a00135610ef0565b34801561044357600080fd5b5061028a600480360360a081101561045a57600080fd5b813591602081013591810190606081016040820135600160201b81111561048057600080fd5b82018360208201111561049257600080fd5b803590602001918460208302840111600160201b831117156104b357600080fd5b91935091506001600160a01b03813516906020013561100a565b3480156104d957600080fd5b50610186600480360360a08110156104f057600080fd5b813591602081013591810190606081016040820135600160201b81111561051657600080fd5b82018360208201111561052857600080fd5b803590602001918460208302840111600160201b8311171561054957600080fd5b91935091506001600160a01b0381351690602001356111ee565b34801561056f57600080fd5b5061028a600480360360a081101561058657600080fd5b813591602081013591810190606081016040820135600160201b8111156105ac57600080fd5b8201836020820111156105be57600080fd5b803590602001918460208302840111600160201b831117156105df57600080fd5b91935091506001600160a01b03813516906020013561146b565b34801561060557600080fd5b5061060e6116ff565b604080516001600160a01b039092168252519081900360200190f35b34801561063657600080fd5b506101c3600480360360c081101561064d57600080fd5b506001600160a01b0381358116916020810135916040820135916060810135916080820135169060a00135611723565b34801561068957600080fd5b50610186600480360360a08110156106a057600080fd5b813591602081013591810190606081016040820135600160201b8111156106c657600080fd5b8201836020820111156106d857600080fd5b803590602001918460208302840111600160201b831117156106f957600080fd5b91935091506001600160a01b0381351690602001356118a9565b34801561071f57600080fd5b5061028a600480360360a081101561073657600080fd5b813591602081013591810190606081016040820135600160201b81111561075c57600080fd5b82018360208201111561076e57600080fd5b803590602001918460208302840111600160201b8311171561078f57600080fd5b91935091506001600160a01b038135169060200135611b32565b3480156107b557600080fd5b506101c3600480360360608110156107cc57600080fd5b5080359060208101359060400135611cbe565b3480156107eb57600080fd5b5061028a600480360360a081101561080257600080fd5b813591602081013591810190606081016040820135600160201b81111561082857600080fd5b82018360208201111561083a57600080fd5b803590602001918460208302840111600160201b8311171561085b57600080fd5b91935091506001600160a01b038135169060200135611ccb565b61028a6004803603608081101561088b57600080fd5b81359190810190604081016020820135600160201b8111156108ac57600080fd5b8201836020820111156108be57600080fd5b803590602001918460208302840111600160201b831117156108df57600080fd5b91935091506001600160a01b038135169060200135611dc4565b34801561090557600080fd5b506101c3600480360361014081101561091d57600080fd5b506001600160a01b0381358116916020810135916040820135916060810135916080820135169060a08101359060c081013515159060ff60e08201351690610100810135906101200135612147565b61028a6004803603608081101561098257600080fd5b81359190810190604081016020820135600160201b8111156109a357600080fd5b8201836020820111156109b557600080fd5b803590602001918460208302840111600160201b831117156109d657600080fd5b91935091506001600160a01b038135169060200135612255565b3480156109fc57600080fd5b506101c360048036036060811015610a1357600080fd5b5080359060208101359060400135612595565b348015610a3257600080fd5b50610358600480360360e0811015610a4957600080fd5b506001600160a01b038135811691602081013582169160408201359160608101359160808201359160a08101359091169060c001356125a2565b348015610a8f57600080fd5b5061060e6127e6565b61018660048036036080811015610aae57600080fd5b81359190810190604081016020820135600160201b811115610acf57600080fd5b820183602082011115610ae157600080fd5b803590602001918460208302840111600160201b83111715610b0257600080fd5b91935091506001600160a01b03813516906020013561280a565b348015610b2857600080fd5b5061028a60048036036040811015610b3f57600080fd5b81359190810190604081016020820135600160201b811115610b6057600080fd5b820183602082011115610b7257600080fd5b803590602001918460208302840111600160201b83111715610b9357600080fd5b919080806020026020016040519081016040528093929190818152602001838360200280828437600092019190915250929550612b7b945050505050565b348015610bdd57600080fd5b50610c336004803603610100811015610bf557600080fd5b506001600160a01b038135811691602081013582169160408201359160608101359160808201359160a08101359160c0820135169060e00135612ba8565b60408051938452602084019290925282820152519081900360600190f35b610c33600480360360c0811015610c6757600080fd5b506001600160a01b0381358116916020810135916040820135916060810135916080820135169060a00135612cdb565b6000610ca4848484612f6e565b949350505050565b6060610cd97f00000000000000000000000000000000000000000000000000000000000000008484613046565b90505b92915050565b6000806000610d127f00000000000000000000000000000000000000000000000000000000000000008f8f613193565b9050600087610d21578c610d25565b6000195b6040805163d505accf60e01b815233600482015230602482015260448101839052606481018c905260ff8a16608482015260a4810189905260c4810188905290519192506001600160a01b0384169163d505accf9160e48082019260009290919082900301818387803b158015610d9b57600080fd5b505af1158015610daf573d6000803e3d6000fd5b50505050610dc28f8f8f8f8f8f8f6125a2565b809450819550505050509b509b9950505050505050505050565b6000806000610e2c7f00000000000000000000000000000000000000000000000000000000000000008e7f0000000000000000000000000000000000000000000000000000000000000000613193565b9050600087610e3b578c610e3f565b6000195b6040805163d505accf60e01b815233600482015230602482015260448101839052606481018c905260ff8a16608482015260a4810189905260c4810188905290519192506001600160a01b0384169163d505accf9160e48082019260009290919082900301818387803b158015610eb557600080fd5b505af1158015610ec9573d6000803e3d6000fd5b50505050610edb8e8e8e8e8e8e610ef0565b909f909e509c50505050505050505050505050565b6000808242811015610f37576040805162461bcd60e51b81526020600482015260186024820152600080516020614366833981519152604482015290519081900360640190fd5b610f66897f00000000000000000000000000000000000000000000000000000000000000008a8a8a308a6125a2565b9093509150610f76898685613253565b7f00000000000000000000000000000000000000000000000000000000000000006001600160a01b0316632e1a7d4d836040518263ffffffff1660e01b815260040180828152602001915050600060405180830381600087803b158015610fdc57600080fd5b505af1158015610ff0573d6000803e3d6000fd5b50505050610ffe85836133bd565b50965096945050505050565b60608142811015611050576040805162461bcd60e51b81526020600482015260186024820152600080516020614366833981519152604482015290519081900360640190fd5b6110ae7f0000000000000000000000000000000000000000000000000000000000000000898888808060200260200160405190810160405280939291908181526020018383602002808284376000920191909152506134b592505050565b915086826001845103815181106110c157fe5b602002602001015110156111065760405162461bcd60e51b815260040180806020018281038252602b8152602001806144e1602b913960400191505060405180910390fd5b6111a48686600081811061111657fe5b905060200201356001600160a01b03163361118a7f00000000000000000000000000000000000000000000000000000000000000008a8a600081811061115857fe5b905060200201356001600160a01b03168b8b600181811061117557fe5b905060200201356001600160a01b0316613193565b8560008151811061119757fe5b60200260200101516135ec565b6111e382878780806020026020016040519081016040528093929190818152602001838360200280828437600092019190915250899250613749915050565b509695505050505050565b8042811015611232576040805162461bcd60e51b81526020600482015260186024820152600080516020614366833981519152604482015290519081900360640190fd5b6112a78585600081811061124257fe5b905060200201356001600160a01b0316336112a17f00000000000000000000000000000000000000000000000000000000000000008989600081811061128457fe5b905060200201356001600160a01b03168a8a600181811061117557fe5b8a6135ec565b6000858560001981018181106112b957fe5b905060200201356001600160a01b03166001600160a01b03166370a08231856040518263ffffffff1660e01b815260040180826001600160a01b0316815260200191505060206040518083038186803b15801561131557600080fd5b505afa158015611329573d6000803e3d6000fd5b505050506040513d602081101561133f57600080fd5b50516040805160208881028281018201909352888252929350611381929091899189918291850190849080828437600092019190915250889250613986915050565b86611424828888600019810181811061139657fe5b905060200201356001600160a01b03166001600160a01b03166370a08231886040518263ffffffff1660e01b815260040180826001600160a01b0316815260200191505060206040518083038186803b1580156113f257600080fd5b505afa158015611406573d6000803e3d6000fd5b505050506040513d602081101561141c57600080fd5b505190613c88565b10156114615760405162461bcd60e51b815260040180806020018281038252602b8152602001806144e1602b913960400191505060405180910390fd5b5050505050505050565b606081428110156114b1576040805162461bcd60e51b81526020600482015260186024820152600080516020614366833981519152604482015290519081900360640190fd5b6001600160a01b037f000000000000000000000000000000000000000000000000000000000000000016868660001981018181106114eb57fe5b905060200201356001600160a01b03166001600160a01b031614611544576040805162461bcd60e51b815260206004820152601d6024820152600080516020614386833981519152604482015290519081900360640190fd5b6115a27f0000000000000000000000000000000000000000000000000000000000000000898888808060200260200160405190810160405280939291908181526020018383602002808284376000920191909152506134b592505050565b915086826001845103815181106115b557fe5b602002602001015110156115fa5760405162461bcd60e51b815260040180806020018281038252602b8152602001806144e1602b913960400191505060405180910390fd5b61160a8686600081811061111657fe5b61164982878780806020026020016040519081016040528093929190818152602001838360200280828437600092019190915250309250613749915050565b7f00000000000000000000000000000000000000000000000000000000000000006001600160a01b0316632e1a7d4d8360018551038151811061168857fe5b60200260200101516040518263ffffffff1660e01b815260040180828152602001915050600060405180830381600087803b1580156116c657600080fd5b505af11580156116da573d6000803e3d6000fd5b505050506111e384836001855103815181106116f257fe5b60200260200101516133bd565b7f000000000000000000000000000000000000000000000000000000000000000081565b60008142811015611769576040805162461bcd60e51b81526020600482015260186024820152600080516020614366833981519152604482015290519081900360640190fd5b611798887f000000000000000000000000000000000000000000000000000000000000000089898930896125a2565b90508092505061182188858a6001600160a01b03166370a08231306040518263ffffffff1660e01b815260040180826001600160a01b0316815260200191505060206040518083038186803b1580156117f057600080fd5b505afa158015611804573d6000803e3d6000fd5b505050506040513d602081101561181a57600080fd5b5051613253565b7f00000000000000000000000000000000000000000000000000000000000000006001600160a01b0316632e1a7d4d836040518263ffffffff1660e01b815260040180828152602001915050600060405180830381600087803b15801561188757600080fd5b505af115801561189b573d6000803e3d6000fd5b505050506111e384836133bd565b80428110156118ed576040805162461bcd60e51b81526020600482015260186024820152600080516020614366833981519152604482015290519081900360640190fd5b6001600160a01b037f0000000000000000000000000000000000000000000000000000000000000000168585600019810181811061192757fe5b905060200201356001600160a01b03166001600160a01b031614611980576040805162461bcd60e51b815260206004820152601d6024820152600080516020614386833981519152604482015290519081900360640190fd5b6119908585600081811061124257fe5b6119ce858580806020026020016040519081016040528093929190818152602001838360200280828437600092019190915250309250613986915050565b60007f00000000000000000000000000000000000000000000000000000000000000006001600160a01b03166370a08231306040518263ffffffff1660e01b815260040180826001600160a01b0316815260200191505060206040518083038186803b158015611a3d57600080fd5b505afa158015611a51573d6000803e3d6000fd5b505050506040513d6020811015611a6757600080fd5b5051905086811015611aaa5760405162461bcd60e51b815260040180806020018281038252602b8152602001806144e1602b913960400191505060405180910390fd5b7f00000000000000000000000000000000000000000000000000000000000000006001600160a01b0316632e1a7d4d826040518263ffffffff1660e01b815260040180828152602001915050600060405180830381600087803b158015611b1057600080fd5b505af1158015611b24573d6000803e3d6000fd5b5050505061146184826133bd565b60608142811015611b78576040805162461bcd60e51b81526020600482015260186024820152600080516020614366833981519152604482015290519081900360640190fd5b6001600160a01b037f00000000000000000000000000000000000000000000000000000000000000001686866000198101818110611bb257fe5b905060200201356001600160a01b03166001600160a01b031614611c0b576040805162461bcd60e51b815260206004820152601d6024820152600080516020614386833981519152604482015290519081900360640190fd5b611c697f00000000000000000000000000000000000000000000000000000000000000008988888080602002602001604051908101604052809392919081815260200183836020028082843760009201919091525061304692505050565b91508682600081518110611c7957fe5b602002602001015111156115fa5760405162461bcd60e51b81526004018080602001828103825260278152602001806144946027913960400191505060405180910390fd5b6000610ca4848484613cd6565b60608142811015611d11576040805162461bcd60e51b81526020600482015260186024820152600080516020614366833981519152604482015290519081900360640190fd5b611d6f7f00000000000000000000000000000000000000000000000000000000000000008988888080602002602001604051908101604052809392919081815260200183836020028082843760009201919091525061304692505050565b91508682600081518110611d7f57fe5b602002602001015111156111065760405162461bcd60e51b81526004018080602001828103825260278152602001806144946027913960400191505060405180910390fd5b60608142811015611e0a576040805162461bcd60e51b81526020600482015260186024820152600080516020614366833981519152604482015290519081900360640190fd5b7f00000000000000000000000000000000000000000000000000000000000000006001600160a01b031686866000818110611e4157fe5b905060200201356001600160a01b03166001600160a01b031614611e9a576040805162461bcd60e51b815260206004820152601d6024820152600080516020614386833981519152604482015290519081900360640190fd5b611ef87f00000000000000000000000000000000000000000000000000000000000000008888888080602002602001604051908101604052809392919081815260200183836020028082843760009201919091525061304692505050565b91503482600081518110611f0857fe5b60200260200101511115611f4d5760405162461bcd60e51b81526004018080602001828103825260278152602001806144946027913960400191505060405180910390fd5b7f00000000000000000000000000000000000000000000000000000000000000006001600160a01b031663d0e30db083600081518110611f8957fe5b60200260200101516040518263ffffffff1660e01b81526004016000604051808303818588803b158015611fbc57600080fd5b505af1158015611fd0573d6000803e3d6000fd5b50505050507f00000000000000000000000000000000000000000000000000000000000000006001600160a01b031663a9059cbb6120357f00000000000000000000000000000000000000000000000000000000000000008989600081811061128457fe5b8460008151811061204257fe5b60200260200101516040518363ffffffff1660e01b815260040180836001600160a01b0316815260200182815260200192505050602060405180830381600087803b15801561209057600080fd5b505af11580156120a4573d6000803e3d6000fd5b505050506040513d60208110156120ba57600080fd5b50516120c257fe5b61210182878780806020026020016040519081016040528093929190818152602001838360200280828437600092019190915250899250613749915050565b8160008151811061210e57fe5b602002602001015134111561213d5761213d338360008151811061212e57fe5b602002602001015134036133bd565b5095945050505050565b6000806121957f00000000000000000000000000000000000000000000000000000000000000008d7f0000000000000000000000000000000000000000000000000000000000000000613193565b90506000866121a4578b6121a8565b6000195b6040805163d505accf60e01b815233600482015230602482015260448101839052606481018b905260ff8916608482015260a4810188905260c4810187905290519192506001600160a01b0384169163d505accf9160e48082019260009290919082900301818387803b15801561221e57600080fd5b505af1158015612232573d6000803e3d6000fd5b505050506122448d8d8d8d8d8d611723565b9d9c50505050505050505050505050565b6060814281101561229b576040805162461bcd60e51b81526020600482015260186024820152600080516020614366833981519152604482015290519081900360640190fd5b7f00000000000000000000000000000000000000000000000000000000000000006001600160a01b0316868660008181106122d257fe5b905060200201356001600160a01b03166001600160a01b03161461232b576040805162461bcd60e51b815260206004820152601d6024820152600080516020614386833981519152604482015290519081900360640190fd5b6123897f0000000000000000000000000000000000000000000000000000000000000000348888808060200260200160405190810160405280939291908181526020018383602002808284376000920191909152506134b592505050565b9150868260018451038151811061239c57fe5b602002602001015110156123e15760405162461bcd60e51b815260040180806020018281038252602b8152602001806144e1602b913960400191505060405180910390fd5b7f00000000000000000000000000000000000000000000000000000000000000006001600160a01b031663d0e30db08360008151811061241d57fe5b60200260200101516040518263ffffffff1660e01b81526004016000604051808303818588803b15801561245057600080fd5b505af1158015612464573d6000803e3d6000fd5b50505050507f00000000000000000000000000000000000000000000000000000000000000006001600160a01b031663a9059cbb6124c97f00000000000000000000000000000000000000000000000000000000000000008989600081811061128457fe5b846000815181106124d657fe5b60200260200101516040518363ffffffff1660e01b815260040180836001600160a01b0316815260200182815260200192505050602060405180830381600087803b15801561252457600080fd5b505af1158015612538573d6000803e3d6000fd5b505050506040513d602081101561254e57600080fd5b505161255657fe5b61213d82878780806020026020016040519081016040528093929190818152602001838360200280828437600092019190915250899250613749915050565b6000610ca4848484613dae565b60008082428110156125e9576040805162461bcd60e51b81526020600482015260186024820152600080516020614366833981519152604482015290519081900360640190fd5b60006126167f00000000000000000000000000000000000000000000000000000000000000008c8c613193565b604080516323b872dd60e01b81523360048201526001600160a01b03831660248201819052604482018d9052915192935090916323b872dd916064808201926020929091908290030181600087803b15801561267157600080fd5b505af1158015612685573d6000803e3d6000fd5b505050506040513d602081101561269b57600080fd5b50506040805163226bf2d160e21b81526001600160a01b03888116600483015282516000938493928616926389afcb44926024808301939282900301818787803b1580156126e857600080fd5b505af11580156126fc573d6000803e3d6000fd5b505050506040513d604081101561271257600080fd5b5080516020909101519092509050600061272c8e8e613e54565b509050806001600160a01b03168e6001600160a01b03161461274f578183612752565b82825b90975095508a8710156127965760405162461bcd60e51b81526004018080602001828103825260268152602001806144bb6026913960400191505060405180910390fd5b898610156127d55760405162461bcd60e51b81526004018080602001828103825260268152602001806144176026913960400191505060405180910390fd5b505050505097509795505050505050565b7f000000000000000000000000000000000000000000000000000000000000000081565b804281101561284e576040805162461bcd60e51b81526020600482015260186024820152600080516020614366833981519152604482015290519081900360640190fd5b7f00000000000000000000000000000000000000000000000000000000000000006001600160a01b03168585600081811061288557fe5b905060200201356001600160a01b03166001600160a01b0316146128de576040805162461bcd60e51b815260206004820152601d6024820152600080516020614386833981519152604482015290519081900360640190fd5b60003490507f00000000000000000000000000000000000000000000000000000000000000006001600160a01b031663d0e30db0826040518263ffffffff1660e01b81526004016000604051808303818588803b15801561293e57600080fd5b505af1158015612952573d6000803e3d6000fd5b50505050507f00000000000000000000000000000000000000000000000000000000000000006001600160a01b031663a9059cbb6129b77f00000000000000000000000000000000000000000000000000000000000000008989600081811061128457fe5b836040518363ffffffff1660e01b815260040180836001600160a01b0316815260200182815260200192505050602060405180830381600087803b1580156129fe57600080fd5b505af1158015612a12573d6000803e3d6000fd5b505050506040513d6020811015612a2857600080fd5b5051612a3057fe5b600086866000198101818110612a4257fe5b905060200201356001600160a01b03166001600160a01b03166370a08231866040518263ffffffff1660e01b815260040180826001600160a01b0316815260200191505060206040518083038186803b158015612a9e57600080fd5b505afa158015612ab2573d6000803e3d6000fd5b505050506040513d6020811015612ac857600080fd5b50516040805160208981028281018201909352898252929350612b0a9290918a918a918291850190849080828437600092019190915250899250613986915050565b876114248289896000198101818110612b1f57fe5b905060200201356001600160a01b03166001600160a01b03166370a08231896040518263ffffffff1660e01b815260040180826001600160a01b0316815260200191505060206040518083038186803b1580156113f257600080fd5b6060610cd97f000000000000000000000000000000000000000000000000000000000000000084846134b5565b60008060008342811015612bf1576040805162461bcd60e51b81526020600482015260186024820152600080516020614366833981519152604482015290519081900360640190fd5b612bff8c8c8c8c8c8c613f32565b90945092506000612c317f00000000000000000000000000000000000000000000000000000000000000008e8e613193565b9050612c3f8d3383886135ec565b612c4b8c3383876135ec565b806001600160a01b0316636a627842886040518263ffffffff1660e01b815260040180826001600160a01b03168152602001915050602060405180830381600087803b158015612c9a57600080fd5b505af1158015612cae573d6000803e3d6000fd5b505050506040513d6020811015612cc457600080fd5b5051949d939c50939a509198505050505050505050565b60008060008342811015612d24576040805162461bcd60e51b81526020600482015260186024820152600080516020614366833981519152604482015290519081900360640190fd5b612d528a7f00000000000000000000000000000000000000000000000000000000000000008b348c8c613f32565b90945092506000612da47f00000000000000000000000000000000000000000000000000000000000000008c7f0000000000000000000000000000000000000000000000000000000000000000613193565b9050612db28b3383886135ec565b7f00000000000000000000000000000000000000000000000000000000000000006001600160a01b031663d0e30db0856040518263ffffffff1660e01b81526004016000604051808303818588803b158015612e0d57600080fd5b505af1158015612e21573d6000803e3d6000fd5b50505050507f00000000000000000000000000000000000000000000000000000000000000006001600160a01b031663a9059cbb82866040518363ffffffff1660e01b815260040180836001600160a01b0316815260200182815260200192505050602060405180830381600087803b158015612e9d57600080fd5b505af1158015612eb1573d6000803e3d6000fd5b505050506040513d6020811015612ec757600080fd5b5051612ecf57fe5b806001600160a01b0316636a627842886040518263ffffffff1660e01b815260040180826001600160a01b03168152602001915050602060405180830381600087803b158015612f1e57600080fd5b505af1158015612f32573d6000803e3d6000fd5b505050506040513d6020811015612f4857600080fd5b5051925034841015612f6057612f60338534036133bd565b505096509650969350505050565b6000808411612fae5760405162461bcd60e51b815260040180806020018281038252602b815260200180614469602b913960400191505060405180910390fd5b600083118015612fbe5750600082115b612ff95760405162461bcd60e51b81526004018080602001828103825260288152602001806143ca6028913960400191505060405180910390fd5b6000613007856103e56141c3565b9050600061301582856141c3565b9050600061302f83613029886103e86141c3565b90614228565b905080828161303a57fe5b04979650505050505050565b606060028251101561309f576040805162461bcd60e51b815260206004820152601e60248201527f416c6c696761746f724c6962726172793a20494e56414c49445f504154480000604482015290519081900360640190fd5b815167ffffffffffffffff811180156130b757600080fd5b506040519080825280602002602001820160405280156130e1578160200160208202803683370190505b50905082816001835103815181106130f557fe5b60209081029190910101528151600019015b801561318b576000806131448786600186038151811061312357fe5b602002602001015187868151811061313757fe5b6020026020010151614279565b9150915061316684848151811061315757fe5b60200260200101518383613cd6565b84600185038151811061317557fe5b6020908102919091010152505060001901613107565b509392505050565b60008060006131a28585613e54565b604080516bffffffffffffffffffffffff19606094851b811660208084019190915293851b81166034830152825160288184030181526048830184528051908501206001600160f81b031960688401529a90941b9093166069840152607d8301989098527fb9e24d8adc9950d2bbad93f3262b77c880fd74a80f80a3b68da543e284a99a58609d808401919091528851808403909101815260bd909201909752805196019590952095945050505050565b604080516001600160a01b038481166024830152604480830185905283518084039091018152606490920183526020820180516001600160e01b031663a9059cbb60e01b178152925182516000946060949389169392918291908083835b602083106132d05780518252601f1990920191602091820191016132b1565b6001836020036101000a0380198251168184511680821785525050505050509050019150506000604051808303816000865af19150503d8060008114613332576040519150601f19603f3d011682016040523d82523d6000602084013e613337565b606091505b5091509150818015613365575080511580613365575080806020019051602081101561336257600080fd5b50515b6133b6576040805162461bcd60e51b815260206004820152601f60248201527f5472616e7366657248656c7065723a205452414e534645525f4641494c454400604482015290519081900360640190fd5b5050505050565b604080516000808252602082019092526001600160a01b0384169083906040518082805190602001908083835b602083106134095780518252601f1990920191602091820191016133ea565b6001836020036101000a03801982511681845116808217855250505050505090500191505060006040518083038185875af1925050503d806000811461346b576040519150601f19603f3d011682016040523d82523d6000602084013e613470565b606091505b50509050806134b05760405162461bcd60e51b81526004018080602001828103825260248152602001806143a66024913960400191505060405180910390fd5b505050565b606060028251101561350e576040805162461bcd60e51b815260206004820152601e60248201527f416c6c696761746f724c6962726172793a20494e56414c49445f504154480000604482015290519081900360640190fd5b815167ffffffffffffffff8111801561352657600080fd5b50604051908082528060200260200182016040528015613550578160200160208202803683370190505b509050828160008151811061356157fe5b60200260200101818152505060005b600183510381101561318b576000806135a68786858151811061358f57fe5b602002602001015187866001018151811061313757fe5b915091506135c88484815181106135b957fe5b60200260200101518383612f6e565b8484600101815181106135d757fe5b60209081029190910101525050600101613570565b604080516001600160a01b0385811660248301528481166044830152606480830185905283518084039091018152608490920183526020820180516001600160e01b03166323b872dd60e01b17815292518251600094606094938a169392918291908083835b602083106136715780518252601f199092019160209182019101613652565b6001836020036101000a0380198251168184511680821785525050505050509050019150506000604051808303816000865af19150503d80600081146136d3576040519150601f19603f3d011682016040523d82523d6000602084013e6136d8565b606091505b5091509150818015613706575080511580613706575080806020019051602081101561370357600080fd5b50515b6137415760405162461bcd60e51b815260040180806020018281038252602481526020018061450c6024913960400191505060405180910390fd5b505050505050565b60005b60018351038110156139805760008084838151811061376757fe5b602002602001015185846001018151811061377e57fe5b60200260200101519150915060006137968383613e54565b50905060008785600101815181106137aa57fe5b60200260200101519050600080836001600160a01b0316866001600160a01b0316146137d8578260006137dc565b6000835b91509150600060028a510388106137f35788613834565b6138347f0000000000000000000000000000000000000000000000000000000000000000878c8b6002018151811061382757fe5b6020026020010151613193565b90506138617f00000000000000000000000000000000000000000000000000000000000000008888613193565b6001600160a01b031663022c0d9f84848460006040519080825280601f01601f19166020018201604052801561389e576020820181803683370190505b506040518563ffffffff1660e01b815260040180858152602001848152602001836001600160a01b0316815260200180602001828103825283818151815260200191508051906020019080838360005b838110156139065781810151838201526020016138ee565b50505050905090810190601f1680156139335780820380516001836020036101000a031916815260200191505b5095505050505050600060405180830381600087803b15801561395557600080fd5b505af1158015613969573d6000803e3d6000fd5b50506001909901985061374c975050505050505050565b50505050565b60005b60018351038110156134b0576000808483815181106139a457fe5b60200260200101518584600101815181106139bb57fe5b60200260200101519150915060006139d38383613e54565b5090506000613a037f00000000000000000000000000000000000000000000000000000000000000008585613193565b9050600080600080846001600160a01b0316630902f1ac6040518163ffffffff1660e01b815260040160606040518083038186803b158015613a4457600080fd5b505afa158015613a58573d6000803e3d6000fd5b505050506040513d6060811015613a6e57600080fd5b5080516020909101516001600160701b0391821693501690506000806001600160a01b038a811690891614613aa4578284613aa7565b83835b91509150613afc828b6001600160a01b03166370a082318a6040518263ffffffff1660e01b815260040180826001600160a01b0316815260200191505060206040518083038186803b1580156113f257600080fd5b9550613b09868383612f6e565b945050505050600080856001600160a01b0316886001600160a01b031614613b3357826000613b37565b6000835b91509150600060028c51038a10613b4e578a613b82565b613b827f0000000000000000000000000000000000000000000000000000000000000000898e8d6002018151811061382757fe5b604080516000808252602082019283905263022c0d9f60e01b835260248201878152604483018790526001600160a01b038086166064850152608060848501908152845160a48601819052969750908c169563022c0d9f958a958a958a9591949193919260c486019290918190849084905b83811015613c0c578181015183820152602001613bf4565b50505050905090810190601f168015613c395780820380516001836020036101000a031916815260200191505b5095505050505050600060405180830381600087803b158015613c5b57600080fd5b505af1158015613c6f573d6000803e3d6000fd5b50506001909b019a506139899950505050505050505050565b80820382811115610cdc576040805162461bcd60e51b8152602060048201526013602482015272536166654d6174683a20556e646572666c6f7760681b604482015290519081900360640190fd5b6000808411613d165760405162461bcd60e51b815260040180806020018281038252602c81526020018061443d602c913960400191505060405180910390fd5b600083118015613d265750600082115b613d615760405162461bcd60e51b81526004018080602001828103825260288152602001806143ca6028913960400191505060405180910390fd5b6000613d796103e8613d7386886141c3565b906141c3565b90506000613d8d6103e5613d738689613c88565b9050613da46001828481613d9d57fe5b0490614228565b9695505050505050565b6000808411613dee5760405162461bcd60e51b81526004018080602001828103825260258152602001806143416025913960400191505060405180910390fd5b600083118015613dfe5750600082115b613e395760405162461bcd60e51b81526004018080602001828103825260288152602001806143ca6028913960400191505060405180910390fd5b82613e4485846141c3565b81613e4b57fe5b04949350505050565b600080826001600160a01b0316846001600160a01b03161415613ea85760405162461bcd60e51b81526004018080602001828103825260258152602001806143f26025913960400191505060405180910390fd5b826001600160a01b0316846001600160a01b031610613ec8578284613ecb565b83835b90925090506001600160a01b038216613f2b576040805162461bcd60e51b815260206004820152601e60248201527f416c6c696761746f724c6962726172793a205a45524f5f414444524553530000604482015290519081900360640190fd5b9250929050565b60008060006001600160a01b03167f00000000000000000000000000000000000000000000000000000000000000006001600160a01b031663e6a439058a8a6040518363ffffffff1660e01b815260040180836001600160a01b03168152602001826001600160a01b031681526020019250505060206040518083038186803b158015613fbe57600080fd5b505afa158015613fd2573d6000803e3d6000fd5b505050506040513d6020811015613fe857600080fd5b50516001600160a01b031614156140a6577f00000000000000000000000000000000000000000000000000000000000000006001600160a01b031663c9c6539689896040518363ffffffff1660e01b815260040180836001600160a01b03168152602001826001600160a01b0316815260200192505050602060405180830381600087803b15801561407957600080fd5b505af115801561408d573d6000803e3d6000fd5b505050506040513d60208110156140a357600080fd5b50505b6000806140d47f00000000000000000000000000000000000000000000000000000000000000008b8b614279565b915091508160001480156140e6575080155b156140f6578793508692506141b6565b6000614103898484613dae565b9050878111614156578581101561414b5760405162461bcd60e51b81526004018080602001828103825260268152602001806144176026913960400191505060405180910390fd5b8894509250826141b4565b6000614163898486613dae565b90508981111561416f57fe5b878110156141ae5760405162461bcd60e51b81526004018080602001828103825260268152602001806144bb6026913960400191505060405180910390fd5b94508793505b505b5050965096945050505050565b60008115806141de575050808202828282816141db57fe5b04145b610cdc576040805162461bcd60e51b8152602060048201526016602482015275536166654d6174683a204d756c204f766572666c6f7760501b604482015290519081900360640190fd5b81810181811015610cdc576040805162461bcd60e51b8152602060048201526016602482015275536166654d6174683a20416464204f766572666c6f7760501b604482015290519081900360640190fd5b60008060006142888585613e54565b509050600080614299888888613193565b6001600160a01b0316630902f1ac6040518163ffffffff1660e01b815260040160606040518083038186803b1580156142d157600080fd5b505afa1580156142e5573d6000803e3d6000fd5b505050506040513d60608110156142fb57600080fd5b5080516020909101516001600160701b0391821693501690506001600160a01b038781169084161461432e578082614331565b81815b9099909850965050505050505056fe416c6c696761746f724c6962726172793a20494e53554646494349454e545f414d4f554e54416c6c696761746f72526f757465723a20455850495245440000000000000000416c6c696761746f72526f757465723a20494e56414c49445f504154480000005472616e7366657248656c7065723a20415641585f5452414e534645525f4641494c4544416c6c696761746f724c6962726172793a20494e53554646494349454e545f4c4951554944495459416c6c696761746f724c6962726172793a204944454e544943414c5f414444524553534553416c6c696761746f72526f757465723a20494e53554646494349454e545f425f414d4f554e54416c6c696761746f724c6962726172793a20494e53554646494349454e545f4f55545055545f414d4f554e54416c6c696761746f724c6962726172793a20494e53554646494349454e545f494e5055545f414d4f554e54416c6c696761746f72526f757465723a204558434553534956455f494e5055545f414d4f554e54416c6c696761746f72526f757465723a20494e53554646494349454e545f415f414d4f554e54416c6c696761746f72526f757465723a20494e53554646494349454e545f4f55545055545f414d4f554e545472616e7366657248656c7065723a205452414e534645525f46524f4d5f4641494c4544a264697066735822122027e3fbc6adbd9c11abe2b6d1b48425bb9186313303a3704a96b8565d3a0c9a9d64736f6c634300060c0033",
  "devdoc": {
    "kind": "dev",
    "methods": {},
    "version": 1
  },
  "userdoc": {
    "kind": "user",
    "methods": {},
    "version": 1
  },
  "storageLayout": {
    "storage": [],
    "types": null
  }
}