{
  "address": "0x8F4A71a3f1405e4fC14A11d7A2aaa5e284Fe1b75",
  "abi": [
    {
      "inputs": [
        {
          "internalType": "contract AlligatorToken",
          "name": "_gtr",
          "type": "address"
        },
        {
          "internalType": "address",
          "name": "_devAddr",
          "type": "address"
        },
        {
          "internalType": "address",
          "name": "_treasuryAddr",
          "type": "address"
        },
        {
          "internalType": "address",
          "name": "_investorAddr",
          "type": "address"
        },
        {
          "internalType": "uint256",
          "name": "_gtrPerSec",
          "type": "uint256"
        },
        {
          "internalType": "uint256",
          "name": "_startTimestamp",
          "type": "uint256"
        },
        {
          "internalType": "uint256",
          "name": "_devPercent",
          "type": "uint256"
        },
        {
          "internalType": "uint256",
          "name": "_treasuryPercent",
          "type": "uint256"
        },
        {
          "internalType": "uint256",
          "name": "_investorPercent",
          "type": "uint256"
        }
      ],
      "stateMutability": "nonpayable",
      "type": "constructor"
    },
    {
      "anonymous": false,
      "inputs": [
        {
          "indexed": true,
          "internalType": "uint256",
          "name": "pid",
          "type": "uint256"
        },
        {
          "indexed": false,
          "internalType": "uint256",
          "name": "allocPoint",
          "type": "uint256"
        },
        {
          "indexed": true,
          "internalType": "contract IERC20",
          "name": "lpToken",
          "type": "address"
        },
        {
          "indexed": true,
          "internalType": "contract IRewarder",
          "name": "rewarder",
          "type": "address"
        }
      ],
      "name": "Add",
      "type": "event"
    },
    {
      "anonymous": false,
      "inputs": [
        {
          "indexed": true,
          "internalType": "address",
          "name": "user",
          "type": "address"
        },
        {
          "indexed": true,
          "internalType": "uint256",
          "name": "pid",
          "type": "uint256"
        },
        {
          "indexed": false,
          "internalType": "uint256",
          "name": "amount",
          "type": "uint256"
        }
      ],
      "name": "Deposit",
      "type": "event"
    },
    {
      "anonymous": false,
      "inputs": [
        {
          "indexed": true,
          "internalType": "address",
          "name": "user",
          "type": "address"
        },
        {
          "indexed": true,
          "internalType": "uint256",
          "name": "pid",
          "type": "uint256"
        },
        {
          "indexed": false,
          "internalType": "uint256",
          "name": "amount",
          "type": "uint256"
        }
      ],
      "name": "EmergencyWithdraw",
      "type": "event"
    },
    {
      "anonymous": false,
      "inputs": [
        {
          "indexed": true,
          "internalType": "address",
          "name": "user",
          "type": "address"
        },
        {
          "indexed": true,
          "internalType": "uint256",
          "name": "pid",
          "type": "uint256"
        },
        {
          "indexed": false,
          "internalType": "uint256",
          "name": "amount",
          "type": "uint256"
        }
      ],
      "name": "Harvest",
      "type": "event"
    },
    {
      "anonymous": false,
      "inputs": [
        {
          "indexed": true,
          "internalType": "address",
          "name": "previousOwner",
          "type": "address"
        },
        {
          "indexed": true,
          "internalType": "address",
          "name": "newOwner",
          "type": "address"
        }
      ],
      "name": "OwnershipTransferred",
      "type": "event"
    },
    {
      "anonymous": false,
      "inputs": [
        {
          "indexed": true,
          "internalType": "uint256",
          "name": "pid",
          "type": "uint256"
        },
        {
          "indexed": false,
          "internalType": "uint256",
          "name": "allocPoint",
          "type": "uint256"
        },
        {
          "indexed": true,
          "internalType": "contract IRewarder",
          "name": "rewarder",
          "type": "address"
        },
        {
          "indexed": false,
          "internalType": "bool",
          "name": "overwrite",
          "type": "bool"
        }
      ],
      "name": "Set",
      "type": "event"
    },
    {
      "anonymous": false,
      "inputs": [
        {
          "indexed": true,
          "internalType": "address",
          "name": "oldAddress",
          "type": "address"
        },
        {
          "indexed": true,
          "internalType": "address",
          "name": "newAddress",
          "type": "address"
        }
      ],
      "name": "SetDevAddress",
      "type": "event"
    },
    {
      "anonymous": false,
      "inputs": [
        {
          "indexed": true,
          "internalType": "address",
          "name": "user",
          "type": "address"
        },
        {
          "indexed": false,
          "internalType": "uint256",
          "name": "_gtrPerSec",
          "type": "uint256"
        }
      ],
      "name": "UpdateEmissionRate",
      "type": "event"
    },
    {
      "anonymous": false,
      "inputs": [
        {
          "indexed": true,
          "internalType": "uint256",
          "name": "pid",
          "type": "uint256"
        },
        {
          "indexed": false,
          "internalType": "uint256",
          "name": "lastRewardTimestamp",
          "type": "uint256"
        },
        {
          "indexed": false,
          "internalType": "uint256",
          "name": "lpSupply",
          "type": "uint256"
        },
        {
          "indexed": false,
          "internalType": "uint256",
          "name": "accGtrPerShare",
          "type": "uint256"
        }
      ],
      "name": "UpdatePool",
      "type": "event"
    },
    {
      "anonymous": false,
      "inputs": [
        {
          "indexed": true,
          "internalType": "address",
          "name": "user",
          "type": "address"
        },
        {
          "indexed": true,
          "internalType": "uint256",
          "name": "pid",
          "type": "uint256"
        },
        {
          "indexed": false,
          "internalType": "uint256",
          "name": "amount",
          "type": "uint256"
        }
      ],
      "name": "Withdraw",
      "type": "event"
    },
    {
      "inputs": [
        {
          "internalType": "uint256",
          "name": "_allocPoint",
          "type": "uint256"
        },
        {
          "internalType": "contract IERC20",
          "name": "_lpToken",
          "type": "address"
        },
        {
          "internalType": "contract IRewarder",
          "name": "_rewarder",
          "type": "address"
        }
      ],
      "name": "add",
      "outputs": [],
      "stateMutability": "nonpayable",
      "type": "function"
    },
    {
      "inputs": [
        {
          "internalType": "uint256",
          "name": "_pid",
          "type": "uint256"
        },
        {
          "internalType": "uint256",
          "name": "_amount",
          "type": "uint256"
        }
      ],
      "name": "deposit",
      "outputs": [],
      "stateMutability": "nonpayable",
      "type": "function"
    },
    {
      "inputs": [
        {
          "internalType": "address",
          "name": "_devAddr",
          "type": "address"
        }
      ],
      "name": "dev",
      "outputs": [],
      "stateMutability": "nonpayable",
      "type": "function"
    },
    {
      "inputs": [],
      "name": "devAddr",
      "outputs": [
        {
          "internalType": "address",
          "name": "",
          "type": "address"
        }
      ],
      "stateMutability": "view",
      "type": "function"
    },
    {
      "inputs": [],
      "name": "devPercent",
      "outputs": [
        {
          "internalType": "uint256",
          "name": "",
          "type": "uint256"
        }
      ],
      "stateMutability": "view",
      "type": "function"
    },
    {
      "inputs": [
        {
          "internalType": "uint256",
          "name": "_pid",
          "type": "uint256"
        }
      ],
      "name": "emergencyWithdraw",
      "outputs": [],
      "stateMutability": "nonpayable",
      "type": "function"
    },
    {
      "inputs": [],
      "name": "gtr",
      "outputs": [
        {
          "internalType": "contract AlligatorToken",
          "name": "",
          "type": "address"
        }
      ],
      "stateMutability": "view",
      "type": "function"
    },
    {
      "inputs": [],
      "name": "gtrPerSec",
      "outputs": [
        {
          "internalType": "uint256",
          "name": "",
          "type": "uint256"
        }
      ],
      "stateMutability": "view",
      "type": "function"
    },
    {
      "inputs": [],
      "name": "investorAddr",
      "outputs": [
        {
          "internalType": "address",
          "name": "",
          "type": "address"
        }
      ],
      "stateMutability": "view",
      "type": "function"
    },
    {
      "inputs": [],
      "name": "investorPercent",
      "outputs": [
        {
          "internalType": "uint256",
          "name": "",
          "type": "uint256"
        }
      ],
      "stateMutability": "view",
      "type": "function"
    },
    {
      "inputs": [],
      "name": "massUpdatePools",
      "outputs": [],
      "stateMutability": "nonpayable",
      "type": "function"
    },
    {
      "inputs": [],
      "name": "owner",
      "outputs": [
        {
          "internalType": "address",
          "name": "",
          "type": "address"
        }
      ],
      "stateMutability": "view",
      "type": "function"
    },
    {
      "inputs": [
        {
          "internalType": "uint256",
          "name": "_pid",
          "type": "uint256"
        },
        {
          "internalType": "address",
          "name": "_user",
          "type": "address"
        }
      ],
      "name": "pendingTokens",
      "outputs": [
        {
          "internalType": "uint256",
          "name": "pendingGtr",
          "type": "uint256"
        },
        {
          "internalType": "address",
          "name": "bonusTokenAddress",
          "type": "address"
        },
        {
          "internalType": "string",
          "name": "bonusTokenSymbol",
          "type": "string"
        },
        {
          "internalType": "uint256",
          "name": "pendingBonusToken",
          "type": "uint256"
        }
      ],
      "stateMutability": "view",
      "type": "function"
    },
    {
      "inputs": [
        {
          "internalType": "uint256",
          "name": "",
          "type": "uint256"
        }
      ],
      "name": "poolInfo",
      "outputs": [
        {
          "internalType": "contract IERC20",
          "name": "lpToken",
          "type": "address"
        },
        {
          "internalType": "uint256",
          "name": "allocPoint",
          "type": "uint256"
        },
        {
          "internalType": "uint256",
          "name": "lastRewardTimestamp",
          "type": "uint256"
        },
        {
          "internalType": "uint256",
          "name": "accGtrPerShare",
          "type": "uint256"
        },
        {
          "internalType": "contract IRewarder",
          "name": "rewarder",
          "type": "address"
        }
      ],
      "stateMutability": "view",
      "type": "function"
    },
    {
      "inputs": [],
      "name": "poolLength",
      "outputs": [
        {
          "internalType": "uint256",
          "name": "",
          "type": "uint256"
        }
      ],
      "stateMutability": "view",
      "type": "function"
    },
    {
      "inputs": [],
      "name": "renounceOwnership",
      "outputs": [],
      "stateMutability": "nonpayable",
      "type": "function"
    },
    {
      "inputs": [
        {
          "internalType": "uint256",
          "name": "_pid",
          "type": "uint256"
        },
        {
          "internalType": "uint256",
          "name": "_allocPoint",
          "type": "uint256"
        },
        {
          "internalType": "contract IRewarder",
          "name": "_rewarder",
          "type": "address"
        },
        {
          "internalType": "bool",
          "name": "overwrite",
          "type": "bool"
        }
      ],
      "name": "set",
      "outputs": [],
      "stateMutability": "nonpayable",
      "type": "function"
    },
    {
      "inputs": [
        {
          "internalType": "address",
          "name": "_investorAddr",
          "type": "address"
        }
      ],
      "name": "setInvestorAddr",
      "outputs": [],
      "stateMutability": "nonpayable",
      "type": "function"
    },
    {
      "inputs": [
        {
          "internalType": "address",
          "name": "_treasuryAddr",
          "type": "address"
        }
      ],
      "name": "setTreasuryAddr",
      "outputs": [],
      "stateMutability": "nonpayable",
      "type": "function"
    },
    {
      "inputs": [],
      "name": "startTimestamp",
      "outputs": [
        {
          "internalType": "uint256",
          "name": "",
          "type": "uint256"
        }
      ],
      "stateMutability": "view",
      "type": "function"
    },
    {
      "inputs": [],
      "name": "totalAllocPoint",
      "outputs": [
        {
          "internalType": "uint256",
          "name": "",
          "type": "uint256"
        }
      ],
      "stateMutability": "view",
      "type": "function"
    },
    {
      "inputs": [
        {
          "internalType": "address",
          "name": "newOwner",
          "type": "address"
        }
      ],
      "name": "transferOwnership",
      "outputs": [],
      "stateMutability": "nonpayable",
      "type": "function"
    },
    {
      "inputs": [],
      "name": "treasuryAddr",
      "outputs": [
        {
          "internalType": "address",
          "name": "",
          "type": "address"
        }
      ],
      "stateMutability": "view",
      "type": "function"
    },
    {
      "inputs": [],
      "name": "treasuryPercent",
      "outputs": [
        {
          "internalType": "uint256",
          "name": "",
          "type": "uint256"
        }
      ],
      "stateMutability": "view",
      "type": "function"
    },
    {
      "inputs": [
        {
          "internalType": "uint256",
          "name": "_pid",
          "type": "uint256"
        }
      ],
      "name": "updatePool",
      "outputs": [],
      "stateMutability": "nonpayable",
      "type": "function"
    },
    {
      "inputs": [
        {
          "internalType": "uint256",
          "name": "",
          "type": "uint256"
        },
        {
          "internalType": "address",
          "name": "",
          "type": "address"
        }
      ],
      "name": "userInfo",
      "outputs": [
        {
          "internalType": "uint256",
          "name": "amount",
          "type": "uint256"
        },
        {
          "internalType": "uint256",
          "name": "rewardDebt",
          "type": "uint256"
        }
      ],
      "stateMutability": "view",
      "type": "function"
    },
    {
      "inputs": [
        {
          "internalType": "uint256",
          "name": "_pid",
          "type": "uint256"
        },
        {
          "internalType": "uint256",
          "name": "_amount",
          "type": "uint256"
        }
      ],
      "name": "withdraw",
      "outputs": [],
      "stateMutability": "nonpayable",
      "type": "function"
    }
  ],
  "transactionHash": "0x94768a297fff11be79355049cf2fce950a44120f4aa659686ad503fa6ace739a",
  "args": [
    "0xe1ec2a58DC2C33466F3c301E79ad472E33694eD4",
    "0x1fF33b086994311E0eA497D4C69eE34F486729b9",
    "0x6c5d8D6D46C53BC9AE1619430928De3DD7D437E8",
    "0x1DD9CE4824946d2cF1EeBd1B1e765E834C19Cec8",
    "7400000000000000000",
    "1640113200",
    "150",
    "200",
    "150"
  ],
  "solcInputHash": "892a2726a32c789d2cae6756b49c1713",
  "bytecode": "0x60806040523480156200001157600080fd5b5060405162002ca038038062002ca08339810160408190526200003491620001a7565b600062000040620001a3565b600080546001600160a01b0319166001600160a01b0383169081178255604051929350917f8be0079c531659141344cd1fd0a4f28419497f9722a3daafe3b4186f6b6457e0908290a350600180556101f4831115620000bc5760405162461bcd60e51b8152600401620000b3906200028c565b60405180910390fd5b6101f4821115620000e15760405162461bcd60e51b8152600401620000b39062000241565b6101f4811115620001065760405162461bcd60e51b8152600401620000b39062000315565b6101f4818385010111156200012f5760405162461bcd60e51b8152600401620000b390620002d2565b600280546001600160a01b039a8b166001600160a01b03199182161790915560038054998b169982169990991790985560048054978a169789169790971790965560058054959098169490961693909317909555600655600f939093556007929092556008556009556000600e5562000379565b3390565b60008060008060008060008060006101208a8c031215620001c6578485fd5b8951620001d38162000360565b60208b0151909950620001e68162000360565b60408b0151909850620001f98162000360565b60608b01519097506200020c8162000360565b8096505060808a0151945060a08a0151935060c08a0151925060e08a015191506101008a015190509295985092959850929598565b6020808252602b908201527f636f6e7374727563746f723a20696e76616c696420747265617375727920706560408201526a7263656e742076616c756560a81b606082015260800190565b60208082526026908201527f636f6e7374727563746f723a20696e76616c6964206465762070657263656e746040820152652076616c756560d01b606082015260800190565b60208082526023908201527f636f6e7374727563746f723a20746f74616c2070657263656e74206f766572206040820152620dac2f60eb1b606082015260800190565b6020808252602b908201527f636f6e7374727563746f723a20696e76616c696420696e766573746f7220706560408201526a7263656e742076616c756560a81b606082015260800190565b6001600160a01b03811681146200037657600080fd5b50565b61291780620003896000396000f3fe608060405234801561001057600080fd5b50600436106101a95760003560e01c806388bba42f116100f9578063d10fc10411610097578063e6fd48bc11610071578063e6fd48bc14610323578063f2fde38b1461032b578063fc3c28af1461033e578063ffcd426314610346576101a9565b8063d10fc10414610300578063da09c72c14610308578063e2bbb15814610310576101a9565b806393f1a40b116100d357806393f1a40b146102b1578063a7e05b9c146102d2578063ab7de098146102e5578063acc4cc50146102f8576101a9565b806388bba42f146102835780638d88a90e146102965780638da5cb5b146102a9576101a9565b806330d9a62a116101665780635312ea8e116101405780635312ea8e14610258578063630b5ba11461026b578063715018a614610273578063753f1b981461027b576101a9565b806330d9a62a1461021d578063441a3e701461023257806351eb05a614610245576101a9565b806304ef9d58146101ae5780630735b208146101cc578063081e3eda146101d45780630f51f8ff146101dc5780631526fe27146101f157806317caf6f114610215575b600080fd5b6101b6610369565b6040516101c39190612801565b60405180910390f35b6101b661036f565b6101b6610375565b6101ef6101ea366004612211565b61037b565b005b6102046101ff366004612300565b6103d0565b6040516101c3959493929190612477565b6101b661041b565b610225610421565b6040516101c39190612426565b6101ef6102403660046123a0565b610430565b6101ef610253366004612300565b61066c565b6101ef610266366004612300565b610abb565b6101ef610c07565b6101ef610c26565b6101b6610caf565b6101ef6102913660046123c1565b610cb5565b6101ef6102a4366004612211565b610efa565b610225610f70565b6102c46102bf366004612330565b610f7f565b6040516101c392919061286b565b6101ef6102e0366004612211565b610fa3565b6101ef6102f336600461235f565b610fef565b610225611339565b610225611348565b610225611357565b6101ef61031e3660046123a0565b611366565b6101b6611684565b6101ef610339366004612211565b61168a565b6101b661174a565b610359610354366004612330565b611750565b6040516101c3949392919061280a565b60085481565b60095481565b600a5490565b6005546001600160a01b031633146103ae5760405162461bcd60e51b81526004016103a5906126d2565b60405180910390fd5b600580546001600160a01b0319166001600160a01b0392909216919091179055565b600a81815481106103dd57fe5b6000918252602090912060059091020180546001820154600283015460038401546004909401546001600160a01b0393841695509193909290911685565b600e5481565b6004546001600160a01b031681565b6104386121d0565b600a838154811061044557fe5b600091825260208083206040805160a081018252600590940290910180546001600160a01b03908116855260018201548585015260028201548584015260038201546060860152600490910154166080840152868452600d82528084203385529091529091208054919250908311156104d05760405162461bcd60e51b81526004016103a5906125c9565b6104d98461066c565b80541561056a57600061051a826001015461051464e8d4a5100061050e87606001518760000154611abc90919063ffffffff16565b90611aff565b90611b31565b90506105263382611b59565b84336001600160a01b03167f71bab65ced2e5750775a0613be067df48ef06cf92a496ebf7663ae0660924954836040516105609190612801565b60405180910390a3505b80546105769084611b31565b80825560608301516105939164e8d4a510009161050e9190611abc565b600182015560808201516001600160a01b0381161561060d5781546040516388331ad960e01b81526001600160a01b038316916388331ad9916105da91339160040161243a565b600060405180830381600087803b1580156105f457600080fd5b505af1158015610608573d6000803e3d6000fd5b505050505b8251610623906001600160a01b03163386611cf9565b84336001600160a01b03167ff279e6a1f5e320cca91135676d9cb6e44ca8a08c0b88342bcdb1144f6511b5688660405161065d9190612801565b60405180910390a35050505050565b6106746121d0565b600a828154811061068157fe5b60009182526020918290206040805160a081018252600590930290910180546001600160a01b0390811684526001820154948401949094526002810154918301829052600381015460608401526004015490921660808201529150421115610ab75780516040516370a0823160e01b81526000916001600160a01b0316906370a0823190610713903090600401612426565b60206040518083038186803b15801561072b57600080fd5b505afa15801561073f573d6000803e3d6000fd5b505050506040513d601f19601f820116820180604052508101906107639190612318565b905080156109f6576000610784836040015142611b3190919063ffffffff16565b905060006107b1600e5461050e86602001516107ab60065487611abc90919063ffffffff16565b90611abc565b6009546008546007546002546003549495506103e88281039390930393909303936001600160a01b03938416936340c10f19939116916107f7919061050e908890611abc565b6040518363ffffffff1660e01b815260040161081492919061243a565b600060405180830381600087803b15801561082e57600080fd5b505af1158015610842573d6000803e3d6000fd5b50506002546004546008546001600160a01b0392831694506340c10f199350911690610877906103e89061050e908890611abc565b6040518363ffffffff1660e01b815260040161089492919061243a565b600060405180830381600087803b1580156108ae57600080fd5b505af11580156108c2573d6000803e3d6000fd5b50506002546005546009546001600160a01b0392831694506340c10f1993509116906108f7906103e89061050e908890611abc565b6040518363ffffffff1660e01b815260040161091492919061243a565b600060405180830381600087803b15801561092e57600080fd5b505af1158015610942573d6000803e3d6000fd5b50506002546001600160a01b031691506340c10f1990503061096a6103e861050e8787611abc565b6040518363ffffffff1660e01b815260040161098792919061243a565b600060405180830381600087803b1580156109a157600080fd5b505af11580156109b5573d6000803e3d6000fd5b505050506109ed6109e26103e861050e846107ab8961050e64e8d4a510008a611abc90919063ffffffff16565b606087015190611def565b60608601525050505b426040830152600a805483919085908110610a0d57fe5b6000918252602091829020835160059092020180546001600160a01b039283166001600160a01b0319918216178255928401516001820155604080850151600283015560608086015160038401556080909501516004909201805492909316919093161790558381015191840151905185927f3be3541fc42237d611b30329040bfa4569541d156560acdbbae57640d20b8f4692610aad92869190612879565b60405180910390a2505b5050565b610ac36121d0565b600a8281548110610ad057fe5b600091825260208083206040805160a081018252600590940290910180546001600160a01b0390811685526001808301548686015260028301548685015260038301546060870152600490920154811660808601908152888752600d85528387203388529094529185208054868255918101959095559151929450909190811615610bb7576040516388331ad960e01b81526001600160a01b038216906388331ad990610b8490339060009060040161243a565b600060405180830381600087803b158015610b9e57600080fd5b505af1158015610bb2573d6000803e3d6000fd5b505050505b8351610bcd906001600160a01b03163384611cf9565b84336001600160a01b03167fbb757047c2b5f3974fe26b7c10f732e7bce710b0952a71082702781e62ae05958460405161065d9190612801565b600a5460005b81811015610ab757610c1e8161066c565b600101610c0d565b610c2e611e14565b6001600160a01b0316610c3f610f70565b6001600160a01b031614610c655760405162461bcd60e51b81526004016103a590612670565b600080546040516001600160a01b03909116907f8be0079c531659141344cd1fd0a4f28419497f9722a3daafe3b4186f6b6457e0908390a3600080546001600160a01b0319169055565b60065481565b610cbd611e14565b6001600160a01b0316610cce610f70565b6001600160a01b031614610cf45760405162461bcd60e51b81526004016103a590612670565b610cfd82611e18565b80610d0f57506001600160a01b038216155b610d2b5760405162461bcd60e51b81526004016103a590612709565b610d33610c07565b610d3b6121d0565b600a8581548110610d4857fe5b60009182526020918290206040805160a081018252600590930290910180546001600160a01b03908116845260018201549484018590526002820154928401929092526003810154606084015260040154166080820152600e54909250610dba918691610db491611b31565b90611def565b600e55602081018490528115610e3b576040516388331ad960e01b81526001600160a01b038416906388331ad990610df990600090819060040161243a565b600060405180830381600087803b158015610e1357600080fd5b505af1158015610e27573d6000803e3d6000fd5b5050506001600160a01b0384166080830152505b80600a8681548110610e4957fe5b600091825260209182902083516005929092020180546001600160a01b03199081166001600160a01b03938416178255928401516001820155604084015160028201556060840151600382015560809093015160049093018054909216921691909117905581610ebd578060800151610ebf565b825b6001600160a01b0316857fa54644aae5c48c5971516f334e4fe8ecbc7930e23f34877d4203c6551e67ffaa868560405161065d92919061285b565b6003546001600160a01b03163314610f245760405162461bcd60e51b81526004016103a5906126a5565b600380546001600160a01b0319166001600160a01b03831690811790915560405133907f618c54559e94f1499a808aad71ee8729f8e74e8c48e979616328ce493a1a52e790600090a350565b6000546001600160a01b031690565b600d6020908152600092835260408084209091529082529020805460019091015482565b6004546001600160a01b03163314610fcd5760405162461bcd60e51b81526004016103a5906127ca565b600480546001600160a01b0319166001600160a01b0392909216919091179055565b610ff7611e14565b6001600160a01b0316611008610f70565b6001600160a01b03161461102e5760405162461bcd60e51b81526004016103a590612670565b61103781611e18565b8061104957506001600160a01b038116155b6110655760405162461bcd60e51b81526004016103a59061274f565b611070600b83611e22565b1561108d5760405162461bcd60e51b81526004016103a590612641565b6040516370a0823160e01b81526001600160a01b038316906370a08231906110b9903090600401612426565b60206040518083038186803b1580156110d157600080fd5b505afa1580156110e5573d6000803e3d6000fd5b505050506040513d601f19601f820116820180604052508101906111099190612318565b506001600160a01b0381161561117b576040516388331ad960e01b81526001600160a01b038216906388331ad99061114890600090819060040161243a565b600060405180830381600087803b15801561116257600080fd5b505af1158015611176573d6000803e3d6000fd5b505050505b611183610c07565b6000600f54421161119657600f54611198565b425b600e549091506111a89085611def565b600e556040805160a0810182526001600160a01b0385811682526020820187815292820184815260006060840181815287841660808601908152600a8054600181018255935294517fc65a7bb8d6351c1cf70c95a316cc6a92839c986682d98bc35f958f4883f9d2a8600590930292830180546001600160a01b031990811692871692909217905595517fc65a7bb8d6351c1cf70c95a316cc6a92839c986682d98bc35f958f4883f9d2a983015591517fc65a7bb8d6351c1cf70c95a316cc6a92839c986682d98bc35f958f4883f9d2aa82015590517fc65a7bb8d6351c1cf70c95a316cc6a92839c986682d98bc35f958f4883f9d2ab82015591517fc65a7bb8d6351c1cf70c95a316cc6a92839c986682d98bc35f958f4883f9d2ac909201805490931691161790556112dd600b84611e37565b50600a546001600160a01b0380841691908516906112fc906001611b31565b7f4b16bd2431ad24dc020ab0e1de7fcb6563dead6a24fb10089d6c23e97a70381f8760405161132b9190612801565b60405180910390a450505050565b6005546001600160a01b031681565b6002546001600160a01b031681565b6003546001600160a01b031681565b61136f8261066c565b6113776121d0565b600a838154811061138457fe5b600091825260208083206040805160a081018252600590940290910180546001600160a01b03908116855260018201548585015260028201548584015260038201546060860152600490910154166080840152868452600d825280842033855290915290912080549192509015611473576000611423826001015461051464e8d4a5100061050e87606001518760000154611abc90919063ffffffff16565b905061142f3382611b59565b84336001600160a01b03167f71bab65ced2e5750775a0613be067df48ef06cf92a496ebf7663ae0660924954836040516114699190612801565b60405180910390a3505b81516040516370a0823160e01b81526000916001600160a01b0316906370a08231906114a3903090600401612426565b60206040518083038186803b1580156114bb57600080fd5b505afa1580156114cf573d6000803e3d6000fd5b505050506040513d601f19601f820116820180604052508101906114f39190612318565b835190915061150d906001600160a01b0316333087611e4c565b82516040516370a0823160e01b81526000916115939184916001600160a01b0316906370a0823190611543903090600401612426565b60206040518083038186803b15801561155b57600080fd5b505afa15801561156f573d6000803e3d6000fd5b505050506040513d601f19601f820116820180604052508101906105149190612318565b83549091506115a29082611def565b80845560608501516115bf9164e8d4a510009161050e9190611abc565b600184015560808401516001600160a01b038116156116395783546040516388331ad960e01b81526001600160a01b038316916388331ad99161160691339160040161243a565b600060405180830381600087803b15801561162057600080fd5b505af1158015611634573d6000803e3d6000fd5b505050505b86336001600160a01b03167f90890809c654f11d6e72a28fa60149770a0d11ec6c92319d6ceb2bb0a4ea1a15886040516116739190612801565b60405180910390a350505050505050565b600f5481565b611692611e14565b6001600160a01b03166116a3610f70565b6001600160a01b0316146116c95760405162461bcd60e51b81526004016103a590612670565b6001600160a01b0381166116ef5760405162461bcd60e51b81526004016103a5906124de565b600080546040516001600160a01b03808516939216917f8be0079c531659141344cd1fd0a4f28419497f9722a3daafe3b4186f6b6457e091a3600080546001600160a01b0319166001600160a01b0392909216919091179055565b60075481565b6000806060600061175f6121d0565b600a878154811061176c57fe5b600091825260208083206040805160a081018252600590940290910180546001600160a01b039081168552600182015485850152600282015485840152600382015460608601908152600492830154821660808701528d8752600d85528387208d831688529094528286209351855193516370a0823160e01b8152959750939593949216916370a082319161180391309101612426565b60206040518083038186803b15801561181b57600080fd5b505afa15801561182f573d6000803e3d6000fd5b505050506040513d601f19601f820116820180604052508101906118539190612318565b905083604001514211801561186757508015155b156118ee576000611885856040015142611b3190919063ffffffff16565b905060006009546008546007546103e8030303905060006118c96103e861050e846107ab600e5461050e8d602001516107ab6006548c611abc90919063ffffffff16565b90506118e86118e18561050e8464e8d4a51000611abc565b8690611def565b94505050505b611916836001015461051464e8d4a5100061050e868860000154611abc90919063ffffffff16565b60808501519098506001600160a01b031615611aaf5783608001516001600160a01b031663f7c618c16040518163ffffffff1660e01b815260040160206040518083038186803b15801561196957600080fd5b505afa15801561197d573d6000803e3d6000fd5b505050506040513d601f19601f820116820180604052508101906119a19190612249565b9650611a2984608001516001600160a01b031663f7c618c16040518163ffffffff1660e01b815260040160206040518083038186803b1580156119e357600080fd5b505afa1580156119f7573d6000803e3d6000fd5b505050506040513d601f19601f82011682018060405250810190611a1b9190612249565b6001600160a01b0316611f45565b608085015160405163c031a66f60e01b81529197506001600160a01b03169063c031a66f90611a5c908c90600401612426565b60206040518083038186803b158015611a7457600080fd5b505afa158015611a88573d6000803e3d6000fd5b505050506040513d601f19601f82011682018060405250810190611aac9190612318565b94505b5050505092959194509250565b600082611acb57506000611af9565b82820282848281611ad857fe5b0414611af65760405162461bcd60e51b81526004016103a590612600565b90505b92915050565b6000808211611b205760405162461bcd60e51b81526004016103a590612592565b818381611b2957fe5b049392505050565b600082821115611b535760405162461bcd60e51b81526004016103a59061255b565b50900390565b6002546040516370a0823160e01b81526000916001600160a01b0316906370a0823190611b8a903090600401612426565b60206040518083038186803b158015611ba257600080fd5b505afa158015611bb6573d6000803e3d6000fd5b505050506040513d601f19601f82011682018060405250810190611bda9190612318565b905080821115611c6e5760025460405163a9059cbb60e01b81526001600160a01b039091169063a9059cbb90611c16908690859060040161243a565b602060405180830381600087803b158015611c3057600080fd5b505af1158015611c44573d6000803e3d6000fd5b505050506040513d601f19601f82011682018060405250810190611c68919061222d565b50611cf4565b60025460405163a9059cbb60e01b81526001600160a01b039091169063a9059cbb90611ca0908690869060040161243a565b602060405180830381600087803b158015611cba57600080fd5b505af1158015611cce573d6000803e3d6000fd5b505050506040513d601f19601f82011682018060405250810190611cf2919061222d565b505b505050565b60006060846001600160a01b031663a9059cbb60e01b8585604051602401611d2292919061243a565b60408051601f198184030181529181526020820180516001600160e01b03166001600160e01b0319909416939093179092529051611d60919061240a565b6000604051808303816000865af19150503d8060008114611d9d576040519150601f19603f3d011682016040523d82523d6000602084013e611da2565b606091505b5091509150818015611dcc575080511580611dcc575080806020019051810190611dcc919061222d565b611de85760405162461bcd60e51b81526004016103a5906124a7565b5050505050565b600082820183811015611af65760405162461bcd60e51b81526004016103a590612524565b3390565b803b15155b919050565b6000611af6836001600160a01b038416612008565b6000611af6836001600160a01b038416612020565b60006060856001600160a01b03166323b872dd60e01b868686604051602401611e7793929190612453565b60408051601f198184030181529181526020820180516001600160e01b03166001600160e01b0319909416939093179092529051611eb5919061240a565b6000604051808303816000865af19150503d8060008114611ef2576040519150601f19603f3d011682016040523d82523d6000602084013e611ef7565b606091505b5091509150818015611f21575080511580611f21575080806020019051810190611f21919061222d565b611f3d5760405162461bcd60e51b81526004016103a590612795565b505050505050565b60408051600481526024810182526020810180516001600160e01b03166395d89b4160e01b179052905160609160009183916001600160a01b03861691611f8c919061240a565b600060405180830381855afa9150503d8060008114611fc7576040519150601f19603f3d011682016040523d82523d6000602084013e611fcc565b606091505b509150915081611ff757604051806040016040528060038152602001623f3f3f60e81b815250612000565b6120008161206a565b949350505050565b60009081526001919091016020526040902054151590565b600061202c8383612008565b61206257508154600181810184556000848152602080822090930184905584548482528286019093526040902091909155611af9565b506000611af9565b6060604082511061209057818060200190518101906120899190612265565b9050611e1d565b8151602014156121b05760005b60208160ff161080156120cc5750828160ff16815181106120ba57fe5b01602001516001600160f81b03191615155b156120d95760010161209d565b60608160ff1667ffffffffffffffff811180156120f557600080fd5b506040519080825280601f01601f191660200182016040528015612120576020820181803683370190505b509050600091505b60208260ff161080156121575750838260ff168151811061214557fe5b01602001516001600160f81b03191615155b156121a757838260ff168151811061216b57fe5b602001015160f81c60f81b818360ff168151811061218557fe5b60200101906001600160f81b031916908160001a905350600190910190612128565b9150611e1d9050565b506040805180820190915260038152623f3f3f60e81b6020820152611e1d565b6040518060a0016040528060006001600160a01b0316815260200160008152602001600081526020016000815260200160006001600160a01b031681525090565b600060208284031215612222578081fd5b8135611af6816128bb565b60006020828403121561223e578081fd5b8151611af6816128d3565b60006020828403121561225a578081fd5b8151611af6816128bb565b600060208284031215612276578081fd5b815167ffffffffffffffff8082111561228d578283fd5b818401915084601f8301126122a0578283fd5b8151818111156122ae578384fd5b604051601f8201601f1916810160200183811182821017156122ce578586fd5b6040528181528382016020018710156122e5578485fd5b6122f682602083016020870161288f565b9695505050505050565b600060208284031215612311578081fd5b5035919050565b600060208284031215612329578081fd5b5051919050565b60008060408385031215612342578081fd5b823591506020830135612354816128bb565b809150509250929050565b600080600060608486031215612373578081fd5b833592506020840135612385816128bb565b91506040840135612395816128bb565b809150509250925092565b600080604083850312156123b2578182fd5b50508035926020909101359150565b600080600080608085870312156123d6578081fd5b843593506020850135925060408501356123ef816128bb565b915060608501356123ff816128d3565b939692955090935050565b6000825161241c81846020870161288f565b9190910192915050565b6001600160a01b0391909116815260200190565b6001600160a01b03929092168252602082015260400190565b6001600160a01b039384168152919092166020820152604081019190915260600190565b6001600160a01b039586168152602081019490945260408401929092526060830152909116608082015260a00190565b6020808252601c908201527f426f72696e6745524332303a205472616e73666572206661696c656400000000604082015260600190565b60208082526026908201527f4f776e61626c653a206e6577206f776e657220697320746865207a65726f206160408201526564647265737360d01b606082015260800190565b6020808252601b908201527f536166654d6174683a206164646974696f6e206f766572666c6f770000000000604082015260600190565b6020808252601e908201527f536166654d6174683a207375627472616374696f6e206f766572666c6f770000604082015260600190565b6020808252601a908201527f536166654d6174683a206469766973696f6e206279207a65726f000000000000604082015260600190565b60208082526019908201527f77697468647261773a20616d6f756e7420746f6f206869676800000000000000604082015260600190565b60208082526021908201527f536166654d6174683a206d756c7469706c69636174696f6e206f766572666c6f6040820152607760f81b606082015260800190565b6020808252601590820152741859190e88131408185b1c9958591e481859191959605a1b604082015260600190565b6020808252818101527f4f776e61626c653a2063616c6c6572206973206e6f7420746865206f776e6572604082015260600190565b60208082526013908201527219195d8e881a5b9d1c9d59195c88185b195c9d606a1b604082015260600190565b6020808252601f908201527f736574496e766573746f72416464723a20696e74727564657220616c65727400604082015260600190565b60208082526026908201527f7365743a207265776172646572206d75737420626520636f6e7472616374206f60408201526572207a65726f60d01b606082015260800190565b60208082526026908201527f6164643a207265776172646572206d75737420626520636f6e7472616374206f60408201526572207a65726f60d01b606082015260800190565b6020808252818101527f426f72696e6745524332303a205472616e7366657246726f6d206661696c6564604082015260600190565b6020808252601f908201527f7365745472656173757279416464723a20696e74727564657220616c65727400604082015260600190565b90815260200190565b600085825260018060a01b038516602083015260806040830152835180608084015261283d8160a085016020880161288f565b606083019390935250601f91909101601f19160160a0019392505050565b9182521515602082015260400190565b918252602082015260400190565b9283526020830191909152604082015260600190565b60005b838110156128aa578181015183820152602001612892565b83811115611cf25750506000910152565b6001600160a01b03811681146128d057600080fd5b50565b80151581146128d057600080fdfea26469706673582212202959141d5d690acc903671748641b9f847df864224025b0e1c304700edb675eb64736f6c634300060c0033",
  "devdoc": {
    "kind": "dev",
    "methods": {
      "owner()": {
        "details": "Returns the address of the current owner."
      },
      "renounceOwnership()": {
        "details": "Leaves the contract without owner. It will not be possible to call `onlyOwner` functions anymore. Can only be called by the current owner. NOTE: Renouncing ownership will leave the contract without an owner, thereby removing any functionality that is only available to the owner."
      },
      "transferOwnership(address)": {
        "details": "Transfers ownership of the contract to a new account (`newOwner`). Can only be called by the current owner."
      }
    },
    "version": 1
  },
  "userdoc": {
    "kind": "user",
    "methods": {},
    "version": 1
  },
  "storageLayout": {
    "storage": [
      {
        "astId": 7,
        "contract": "contracts/AlligatorFarmer.sol:AlligatorFarmer",
        "label": "_owner",
        "offset": 0,
        "slot": "0",
        "type": "t_address"
      },
      {
        "astId": 1867,
        "contract": "contracts/AlligatorFarmer.sol:AlligatorFarmer",
        "label": "_status",
        "offset": 0,
        "slot": "1",
        "type": "t_uint256"
      },
      {
        "astId": 3022,
        "contract": "contracts/AlligatorFarmer.sol:AlligatorFarmer",
        "label": "gtr",
        "offset": 0,
        "slot": "2",
        "type": "t_contract(AlligatorToken)7128"
      },
      {
        "astId": 3024,
        "contract": "contracts/AlligatorFarmer.sol:AlligatorFarmer",
        "label": "devAddr",
        "offset": 0,
        "slot": "3",
        "type": "t_address"
      },
      {
        "astId": 3026,
        "contract": "contracts/AlligatorFarmer.sol:AlligatorFarmer",
        "label": "treasuryAddr",
        "offset": 0,
        "slot": "4",
        "type": "t_address"
      },
      {
        "astId": 3028,
        "contract": "contracts/AlligatorFarmer.sol:AlligatorFarmer",
        "label": "investorAddr",
        "offset": 0,
        "slot": "5",
        "type": "t_address"
      },
      {
        "astId": 3030,
        "contract": "contracts/AlligatorFarmer.sol:AlligatorFarmer",
        "label": "gtrPerSec",
        "offset": 0,
        "slot": "6",
        "type": "t_uint256"
      },
      {
        "astId": 3032,
        "contract": "contracts/AlligatorFarmer.sol:AlligatorFarmer",
        "label": "devPercent",
        "offset": 0,
        "slot": "7",
        "type": "t_uint256"
      },
      {
        "astId": 3034,
        "contract": "contracts/AlligatorFarmer.sol:AlligatorFarmer",
        "label": "treasuryPercent",
        "offset": 0,
        "slot": "8",
        "type": "t_uint256"
      },
      {
        "astId": 3036,
        "contract": "contracts/AlligatorFarmer.sol:AlligatorFarmer",
        "label": "investorPercent",
        "offset": 0,
        "slot": "9",
        "type": "t_uint256"
      },
      {
        "astId": 3039,
        "contract": "contracts/AlligatorFarmer.sol:AlligatorFarmer",
        "label": "poolInfo",
        "offset": 0,
        "slot": "10",
        "type": "t_array(t_struct(PoolInfo)3020_storage)dyn_storage"
      },
      {
        "astId": 3041,
        "contract": "contracts/AlligatorFarmer.sol:AlligatorFarmer",
        "label": "lpTokens",
        "offset": 0,
        "slot": "11",
        "type": "t_struct(AddressSet)1640_storage"
      },
      {
        "astId": 3047,
        "contract": "contracts/AlligatorFarmer.sol:AlligatorFarmer",
        "label": "userInfo",
        "offset": 0,
        "slot": "13",
        "type": "t_mapping(t_uint256,t_mapping(t_address,t_struct(UserInfo)3009_storage))"
      },
      {
        "astId": 3049,
        "contract": "contracts/AlligatorFarmer.sol:AlligatorFarmer",
        "label": "totalAllocPoint",
        "offset": 0,
        "slot": "14",
        "type": "t_uint256"
      },
      {
        "astId": 3051,
        "contract": "contracts/AlligatorFarmer.sol:AlligatorFarmer",
        "label": "startTimestamp",
        "offset": 0,
        "slot": "15",
        "type": "t_uint256"
      }
    ],
    "types": {
      "t_address": {
        "encoding": "inplace",
        "label": "address",
        "numberOfBytes": "20"
      },
      "t_array(t_bytes32)dyn_storage": {
        "base": "t_bytes32",
        "encoding": "dynamic_array",
        "label": "bytes32[]",
        "numberOfBytes": "32"
      },
      "t_array(t_struct(PoolInfo)3020_storage)dyn_storage": {
        "base": "t_struct(PoolInfo)3020_storage",
        "encoding": "dynamic_array",
        "label": "struct AlligatorFarmer.PoolInfo[]",
        "numberOfBytes": "32"
      },
      "t_bytes32": {
        "encoding": "inplace",
        "label": "bytes32",
        "numberOfBytes": "32"
      },
      "t_contract(AlligatorToken)7128": {
        "encoding": "inplace",
        "label": "contract AlligatorToken",
        "numberOfBytes": "20"
      },
      "t_contract(IERC20)1045": {
        "encoding": "inplace",
        "label": "contract IERC20",
        "numberOfBytes": "20"
      },
      "t_contract(IRewarder)2689": {
        "encoding": "inplace",
        "label": "contract IRewarder",
        "numberOfBytes": "20"
      },
      "t_mapping(t_address,t_struct(UserInfo)3009_storage)": {
        "encoding": "mapping",
        "key": "t_address",
        "label": "mapping(address => struct AlligatorFarmer.UserInfo)",
        "numberOfBytes": "32",
        "value": "t_struct(UserInfo)3009_storage"
      },
      "t_mapping(t_bytes32,t_uint256)": {
        "encoding": "mapping",
        "key": "t_bytes32",
        "label": "mapping(bytes32 => uint256)",
        "numberOfBytes": "32",
        "value": "t_uint256"
      },
      "t_mapping(t_uint256,t_mapping(t_address,t_struct(UserInfo)3009_storage))": {
        "encoding": "mapping",
        "key": "t_uint256",
        "label": "mapping(uint256 => mapping(address => struct AlligatorFarmer.UserInfo))",
        "numberOfBytes": "32",
        "value": "t_mapping(t_address,t_struct(UserInfo)3009_storage)"
      },
      "t_struct(AddressSet)1640_storage": {
        "encoding": "inplace",
        "label": "struct EnumerableSet.AddressSet",
        "members": [
          {
            "astId": 1639,
            "contract": "contracts/AlligatorFarmer.sol:AlligatorFarmer",
            "label": "_inner",
            "offset": 0,
            "slot": "0",
            "type": "t_struct(Set)1375_storage"
          }
        ],
        "numberOfBytes": "64"
      },
      "t_struct(PoolInfo)3020_storage": {
        "encoding": "inplace",
        "label": "struct AlligatorFarmer.PoolInfo",
        "members": [
          {
            "astId": 3011,
            "contract": "contracts/AlligatorFarmer.sol:AlligatorFarmer",
            "label": "lpToken",
            "offset": 0,
            "slot": "0",
            "type": "t_contract(IERC20)1045"
          },
          {
            "astId": 3013,
            "contract": "contracts/AlligatorFarmer.sol:AlligatorFarmer",
            "label": "allocPoint",
            "offset": 0,
            "slot": "1",
            "type": "t_uint256"
          },
          {
            "astId": 3015,
            "contract": "contracts/AlligatorFarmer.sol:AlligatorFarmer",
            "label": "lastRewardTimestamp",
            "offset": 0,
            "slot": "2",
            "type": "t_uint256"
          },
          {
            "astId": 3017,
            "contract": "contracts/AlligatorFarmer.sol:AlligatorFarmer",
            "label": "accGtrPerShare",
            "offset": 0,
            "slot": "3",
            "type": "t_uint256"
          },
          {
            "astId": 3019,
            "contract": "contracts/AlligatorFarmer.sol:AlligatorFarmer",
            "label": "rewarder",
            "offset": 0,
            "slot": "4",
            "type": "t_contract(IRewarder)2689"
          }
        ],
        "numberOfBytes": "160"
      },
      "t_struct(Set)1375_storage": {
        "encoding": "inplace",
        "label": "struct EnumerableSet.Set",
        "members": [
          {
            "astId": 1370,
            "contract": "contracts/AlligatorFarmer.sol:AlligatorFarmer",
            "label": "_values",
            "offset": 0,
            "slot": "0",
            "type": "t_array(t_bytes32)dyn_storage"
          },
          {
            "astId": 1374,
            "contract": "contracts/AlligatorFarmer.sol:AlligatorFarmer",
            "label": "_indexes",
            "offset": 0,
            "slot": "1",
            "type": "t_mapping(t_bytes32,t_uint256)"
          }
        ],
        "numberOfBytes": "64"
      },
      "t_struct(UserInfo)3009_storage": {
        "encoding": "inplace",
        "label": "struct AlligatorFarmer.UserInfo",
        "members": [
          {
            "astId": 3006,
            "contract": "contracts/AlligatorFarmer.sol:AlligatorFarmer",
            "label": "amount",
            "offset": 0,
            "slot": "0",
            "type": "t_uint256"
          },
          {
            "astId": 3008,
            "contract": "contracts/AlligatorFarmer.sol:AlligatorFarmer",
            "label": "rewardDebt",
            "offset": 0,
            "slot": "1",
            "type": "t_uint256"
          }
        ],
        "numberOfBytes": "64"
      },
      "t_uint256": {
        "encoding": "inplace",
        "label": "uint256",
        "numberOfBytes": "32"
      }
    }
  }
}